:060000000A128A11122809
:10000800FE00030E83120313A0000408A1000A08CF
:10001800A2007F08A3000A168A113F2A0A128A1131
:100028001528FC0183134930840056300A128A11BE
:10003800F8250A128A11A0308400BE300A128A11EB
:10004800F82583010A128A1129280A168A1195208F
:100058000A128A110A128A150C220A128A110A1621
:100068008A1188210A128A11003083120313B500FD
:100078000030B4002530B3008030B2000A168A116F
:100088005E250A128A110A168A11BF200A128A11DD
:10009800D23083120313C7000030C800C601C5015F
:1000A800EF2C0A128A15CC230A128A11C7290A16BC
:1000B8008A111F220A128A110A30E02C0A168A11A4
:1000C800DF210A128A111430E02C0A168A11FF2146
:1000D8000A128A111E30E02C0A168A111F210A12F0
:1000E8008A11003A03197E28023083120313C700CD
:1000F8000030C8000A168A1139210A128A11003AFA
:1001080003198C28033083120313C7000030C8007A
:100118000A168A1153210A128A11003A0319EF2C80
:100128006430E02C0A168A111F210A128A11003A3B
:100138000319A428033083120313C7000030C80032
:100148000A168A1139210A128A11003A0319B228AB
:10015800013083120313C7000030C8000A168A1141
:1001680053210A128A11003A0319EF2CC830E02CE7
:100178000A168A111F210A128A11003A0319CA287D
:10018800013083120313C7000030C8000A168A1111
:1001980039210A128A11003A0319D8280230831229
:1001A8000313C7000030C8000A168A1153210A1227
:1001B8008A11003A0319E6282C3083120313C7006A
:1001C8000130C8000A168A116E200A128A11831299
:1001D8000313BF000A168A1179200A128A118312A2
:1001E80003133F050319EF2C9A30C7000230E42CA3
:1001F80001300A168A1104250A128A118312031380
:10020800AC01CD30AD008730AE0000300A168A113F
:1002180090230A128A1183120313AC01AC0ADE3050
:10022800AD008730AE0000300A168A1190230A12FA
:100238008A116E30E02C0A168A11AF240A128A112C
:100248000A168A1139210A128A11003A031930292B
:1002580083120313C501C50A0A168A1153210A120B
:100268008A11003A031958296F3053290A168A113E
:100278005A240A128A110A168A111F210A128A118F
:10028800003A03194A2983120313C5010A168A1171
:1002980053210A128A11003A03195829703083121F
:1002A8000313C7000030C8000A168A1179200A1201
:1002B8008A1183120313BF000A168A1169200A12D1
:1002C8008A11831203133F050319EF2C0A30E22C1D
:1002D8004508003A03191F29013A03193A29EF2C56
:1002E800EF2C01300A168A1104250A128A1183128A
:1002F8000313AC019030AD008930AE0000300A160F
:100308008A1190230A128A1183120313AC01AC0AD2
:100318005E30AD008930AE0000300A168A11902395
:100328000A128A110A128A1576240A128A11C22917
:1003380001300A168A1104250A128A11831203133E
:10034800AC019030AD008930AE0000300A168A1139
:1003580090230A128A1183120313AC01AC0AB0303D
:10036800AD008930AE0000300A168A1190230A12B7
:100378008A110A128A1157250A128A110A128A1535
:1003880030250A128A110130E02C01300A168A1130
:1003980004250A128A1183120313AC019A30AD00A6
:1003A8008730AE0000300A168A1190230A128A118B
:1003B80083120313AC01AC0A3430AD008730AE00B1
:1003C80000300A168A1190230A128A11D230E02CC2
:1003D80001300A168A1104250A128A11831203139E
:1003E800AC012330AD008730AE0000300A168A1108
:1003F80090230A128A1183120313AC01AC0A453008
:10040800AD008730AE0000300A168A1190230A1218
:100418008A1183120313C201C20A0612772A8312B1
:100428000313AC01AC0A5030AD008930AE00003087
:100438000A168A1190230A128A110A168A11DB22D7
:100448000A128A116A2A83120313AC01AC0A4230D9
:10045800AD008930AE0000300A168A1190230A12C6
:100468008A110A168A11DB220A128A116A2A0A16C6
:100478008A11A3210A128A1183120313BF000230C2
:100488003F02031C6A2A0A168A1189220A128A1153
:1004980083120313BF003F08C3000A168A1189227A
:1004A8000A128A1183120313BF003F08C4004408CC
:1004B800BF003F08A40043080A168A1164220A12E2
:1004C8008A110A168A11ED200A128A11831203135F
:1004D80055080A168A11ED200A128A110A168A117D
:1004E80033230A128A1183120313420803198C2A30
:1004F8000A168A11A0200A128A11003A03193B2A07
:10050800013A0319272A033A0319132A3B2A6A2AAC
:1005180006160230E22C01300A168A1104250A1246
:100528008A1183120313AC01BC30AD008730AE00D2
:1005380000300A168A1190230A128A112D301E2BB8
:10054800AC01AC0A7830AD008730AE0000300A1636
:100558008A1190230A128A110A168A111F210A1277
:100568008A11003A031DC02A0A168A1139210A1273
:100578008A11003A0319C62A2E3083120313C700C2
:100588000130C8000A168A1153210A128A11003A4A
:100598000319982C3130932CAC01AC0A8930AD008A
:1005A8008730AE0000300A168A1190230A128A1189
:1005B8000A168A111F210A128A11003A031DEC2A11
:1005C8000A168A1139210A128A11003A0319F22AE5
:1005D8002D3083120313C7000130C8000A168A1190
:1005E80053210A128A11003A0319982C3230932C9D
:1005F80001300A168A1104250A128A11831203137C
:10060800AC016730AD008730AE0000300A168A11A1
:1006180090230A128A1183120313AC01AC0AAB307F
:10062800AD008730AE0000300A168A1190230A12F6
:100638008A11363083120313C7000130E42C0130CD
:100648000A168A1104250A128A1183120313AC01AF
:100658005630AD008730AE0000300A168A1190235C
:100668000A128A110D3083120313C100AF30C00083
:10067800B530BF00BF0B3E2BC00B3E2BC10B3E2B32
:10068800452BDF2C0A168A1174260A128A110A16BB
:100698008A111F210A128A11003A0319592B0730AF
:1006A80083120313BF003F08C6000A168A113921B6
:1006B8000A128A11003A0319652B83120313C60123
:1006C800C60A0A168A1153210A128A11003A031916
:1006D800982C3730932C0A168A11D7260A128A11B9
:1006E8000A168A111F210A128A11003A03197F2B50
:1006F80083120313C6010A168A1139210A128A11B4
:10070800003A03198D2B023083120313BF003F08F0
:10071800C6000A168A1153210A128A11003A0319CF
:10072800982C3830932C0A168A113A270A128A1103
:100738000A168A111F210A128A11003A0319A82BD6
:1007480083120313C601C60A0A168A1139210A122E
:100758008A11003A0319B62B033083120313BF0022
:100768003F08C6000A168A1153210A128A11003A54
:100778000319982C3930932C0A168A119D270A12CE
:100788008A110A168A111F210A128A11003A0319BE
:10079800D32B023083120313BF003F08C6000A168A
:1007A8008A1139210A128A11003A0319E12B0430FF
:1007B80083120313BF003F08C6000A168A1153218B
:1007C8000A128A11003A0319982C3A30932C0A120B
:1007D8008A1540220A128A110A168A111F210A1242
:1007E8008A11003A0319FE2B033083120313BF004A
:1007F8003F08C6000A168A1139210A128A11003ADE
:1008080003190C2C053083120313BF003F08C600E0
:100818000A168A1153210A128A11003A0319982CD0
:100828003B30932C0A128A15A3220A128A110A163F
:100838008A111F210A128A11003A0319292C04303F
:1008480083120313BF003F08C6000A168A11392114
:100858000A128A11003A0319372C0630831203133F
:10086800BF003F08C6000A168A1153210A128A11CE
:10087800003A0319982C3C30932C0A128A15062347
:100888000A128A110A168A111F210A128A11003ABD
:100898000319542C053083120313BF003F08C60008
:1008A8000A168A1139210A128A11003A0319622C90
:1008B800073083120313BF003F08C6000A168A11C7
:1008C80053210A128A11003A0319982C3D30932CAF
:1008D8000A128A1569230A128A110A168A111F2117
:1008E8000A128A11003A03197F2C06308312031367
:1008F800BF003F08C6000A168A1139210A128A1158
:10090800003A03198A2C83120313C6010A168A11A6
:1009180053210A128A11003A0319982C3E30831287
:100928000313C7000130C8000A168A1179200A1279
:100938008A1183120313BF000A168A1169200A124A
:100948008A11831203133F050319EF2C1E30E22C82
:100958004608003A0319462B013A03196F2B033A4C
:100968000319972B013A0319C02B073A0319EB2BEC
:10097800013A0319162C033A0319412C013A0319B9
:100988006C2CEF2CEF2C01300A168A1104250A1260
:100998008A1183120313AC019030AD008930AE0088
:1009A80000300A168A1190230A128A110A128A152F
:1009B80030250A128A11033083120313C70000304E
:1009C800C800EF2C0A128A152D260A128A118312E2
:1009D8000313C701C801831203134808003A031917
:1009E800FC2C013A0319252D033A0319512DEF2C3C
:1009F8004708003A03195528013A03195B28033AB6
:100A080003196228013A03196928093A0319702859
:100A18001E3A031996280A3A0319BC287A3A031988
:100A2800FC280A3A03196C29013A031975291F3A57
:100A380003199C29B83A0319C9291A3A0319EC2948
:100A4800EF2C47082C3A03198F2A013A0319A42AD4
:100A5800033A0319D02A1F3A0319FC2A033A031947
:100A6800232B043A0319AC2C013A0319C72C0F3A6B
:100A78000319C72C013A0319C72C033A0319C72CC9
:100A8800013A0319C72C073A0319C72C013A03196D
:100A9800C72C033A0319C72CEF2C47089A3A0319B5
:100AA800E62CEF2CEF2C003083120313B500003036
:100AB800B4002530B3008030B2000A168A115E25D2
:100AC8000A128A11FE3083120313A5008630A6008D
:100AD8000A168A11B2220A128A1184308312031369
:100AE800A5008930A6000A168A11B2220A128A11B4
:100AF800033083120313BE008A30BD005530BC009A
:100B0800BC0B842DBD0B842DBE0B842D6B30831242
:100B18000313A5008930A6000A168A11B2220A1208
:100B28008A11033083120313BE008A30BD0055308A
:100B3800BC00BC0B9D2DBD0B9D2DBE0B9D2D3230D9
:100B480083120313A5008930A6000A168A11B2225F
:100B58000A128A11033083120313BE008A30BD00C3
:100B68005530BC00BC0BB62DBD0BB62DBE0BB62D3B
:100B7800A63083120313A5008930A6000A168A112D
:100B8800B2220A128A11033083120313BE008A307C
:100B9800BD005530BC00BC0BCF2DBD0BCF2DBE0BFF
:100BA800CF2DB93083120313A5008930A6000A1689
:100BB8008A11B2220A128A11033083120313BE006B
:100BC8008A30BD005530BC00BC0BE82DBD0BE82DAC
:100BD800BE0BE82DEF3083120313A5008730A60063
:100BE8000A168A11B222080064008001840A0406E9
:100BF800031900340406F92D413454342B3450348D
:100C08004134493452343D34333444344234413429
:100C18002C34383438342C3436343834373441347E
:100C2800373434342C34323430340D340A3400340C
:100C3800413454342B3450344134493452343D34E3
:100C480039343834443433342C34423431342C3449
:100C58004634443434343334453439342C3432341F
:100C680030340D340A340034413454342B34503485
:100C78004134493452343D343034303431343334EF
:100C88002C34453446342C34303430343134343414
:100C9800423442342C34323430340D340A34003483
:100CA800413454342B34423449344E3444343D3482
:100CB80033344434423441342C34383438342C34CA
:100CC8003634383437344134373434340D340A3414
:100CD8000034413454342B344C3449344E344B347E
:100CE8003D3433344434423441342C343834383489
:100CF8002C343634383437344134373434340D34C2
:100D08000A340034413454342B34423449344E3498
:100D180044343D3439343834443433342C34423454
:100D280031342C344634443434343334453439344F
:100D38000D340A340034413454342B344C3449349F
:100D48004E344B343D3439343834443433342C3411
:100D5800423431342C344634443434343334453416
:100D680039340D340A340034413454342B34423489
:100D780049344E3444343D343034303431343334EF
:100D88002C34453446342C34303430343134343413
:100D9800423442340D340A340034413454342B3450
:100DA8004C3449344E344B343D343034303431349F
:100DB80033342C34453446342C34303430343134E4
:100DC8003434423442340D340A3400344134543417
:100DD8002B344E3441344D3445343D34223445347B
:100DE800733463347234613476346F3422340D349E
:100DF8000A340034413454342B3455344134523499
:100E080054343D3439343634303430342C3430347E
:100E18002C3430340D340A340034473441344234ED
:100E28005234493445344C342034473445344E34F4
:100E380055342034203420342034203400342034F5
:100E4800203420342034543452344F344334413421
:100E58004E3444344F342034203420342034003489
:100E6800203420342034203444344534203444346D
:100E7800413444344F345334203420342034203423
:100E8800003420342034203449344E3446344F342E
:100E980052344D344134433441344F3420342034B7
:100EA8002034003444344534533443344F344E34BE
:100EB80045344334543441344E3444344F3420346C
:100EC80020342034003420345034413452344534F2
:100ED80041345234203443344F344D34203449346F
:100EE80050342034203400345034413452344534A2
:100EF80041345234203420342034203420342034F7
:100F08004234543420342034003444344534533487
:100F180043344F344E3445344334543441345234DA
:100F280020344234543420342034003420344334C0
:100F38004F344E344634493452344D3441342034DD
:100F4800543452344F34433441342034003431342F
:100F580020343234203433342034343420342034B0
:100F6800353420343634203437342034383400349F
:100F780042344C345534453454344F344F3454345B
:100F8800483420343C342D342D342D342D343E3423
:100F980000344D344F34443455344C344F342034B9
:100FA800203444344534533445344A344134443489
:100FB8004F3400344534533454344534493452346E
:100FC8004134203420342034203420342034433435
:100FD8004C3450340034413454342B34503453346A
:100FE800573444343D342234303439343134303495
:100FF80022340D340A340034203420342034203490
:101008002034203420342034203420342034203438
:101018002034203420342034003420342034203448
:10102800203420342034413452345234493420346A
:101038002034203420342034203400342034203428
:101048002034203420344534473455344134413435
:1010580041342034203420342034203400344734C0
:10106800553449342E3420345234493442344534CA
:10107800493452344F34203420342034203400345E
:1010880020342034203420345434653463346E34AE
:101098006F346C346F346734203420342034203477
:1010A80000342034203420342D342D342D342D3484
:1010B8002D342D342D342D342D342D34203420343A
:1010C80020340034573441344C344C3441344334A4
:1010D8004534203450344934523445345334203460
:1010E8002034203400344C3449344E3443344F34A3
:1010F8004E3420344E344F3456344134493453340A
:101108002034203420340034203420342034503427
:1011180061347234653461346D3465346E347434DA
:101128006F342034203420340034203420342034E8
:1011380043346F346E3466346934673475347234CA
:101148006134723420342034203400344D34413436
:1011580054344534553453342034503449344E349F
:1011680048344534493452344F3420340034203420
:1011780045346E34763469346F34203464346534DD
:1011880020344434613464346F347334203400348C
:1011980021342A342D342A34203445344734553404
:1011A80041344134413420342A342D342A34213412
:1011B8000034313433342034203420344534473437
:1011C80055344134413441342034203420343534CA
:1011D8003034003435343034203420342034203452
:1011E80041345234523449342034203420342034A9
:1011F8003134333400343A34333420342A342D34FF
:101208002A3441345234523449342A342D342A345D
:1012180020345834443400345834443420342A3484
:101228002D342A3441345234523449342A342D343A
:101238002A3420345834443400345F345F34203442
:1012480020342034203420342034203420342034F6
:101258002034203420345F345F3400344134543433
:101268002B3449344E3451344D343D3430342C34DD
:1012780035342C3435340D340A3400344634723461
:1012880061346D3469346E346734203445347234D3
:1012980072346F34723400344F34763465347234B7
:1012A800723475346E3420344534723472346F3489
:1012B80072340034203450342F342034453473349D
:1012C8007434653469347234613420340034413400
:1012D80054342B3443344D344F34443445343D3442
:1012E80031340D340A340034413454342B345234FC
:1012F8004F344C3445343D3430340D340A340034E2
:10130800413454342B3452344F344C3445343D3406
:1013180031340D340A340034203445346E34763494
:10132800693461346E3464346F34203400344134A9
:1013380054342B3452344D344134413444340D3414
:101348000A340034413454342B3449344E3449344B
:1013580054340D340A340034203450342F342034BB
:1013680043344C34503420340034413454342B3416
:1013780049344E3451340D340A340034453453342E
:1013880054344534493452344134003450344134AF
:10139800523445344134523400342E34203420340D
:1013A800003420342E34203400342E342E342034AB
:1013B8000034203420342E3400342E342E342E348D
:1013C80000343134003432340034343400343534A9
:1013D8000034363400343734003442340034653451
:1013E80000346C3400347534003483120313A700BE
:1013F800A601271C032A2408A5002508A607031010
:10140800A40D0310A70C2708031DFD2926080800B2
:10141800F030831203138805081288168316031305
:101428008801033083120313AA008A30A9005530BB
:10143800A800A80B1D2AA90B1D2AAA0B1D2A2030BB
:101448000A168A1104250A128A1528300A168A11E2
:1014580004250A128A150C300A168A1104250A1264
:101468008A1501300A168A1104250A128A150230D3
:101478000A168A110425080083120313AC01AC0A6A
:10148800E930AD008930AE0006300A168A11902383
:101498000A128A1583120313AC01AC0AED30AD00B1
:1014A8008930AE000B300A168A1190230A128A1569
:1014B8000A168A1187200A128A1583120313240830
:1014C800B1002508B2000230A6000030A7000A16B5
:1014D8008A118E200A128A15831203132508A9007F
:1014E8002408A8000A168A11B9250A128A15831237
:1014F80003133208803AB3002708803A3302031DE9
:10150800872A260831020318962A83120313AC018E
:10151800AC0A0F30AD008830AE0009300A168A11C7
:101528009023080083120313AC01AC0AEB30AD0022
:101538008930AE0009300A168A11902308008312F8
:101548000313AC01AC0AEB30AD008930AE000930B2
:101558000A168A1190230A128A1583120313AC0102
:10156800AC0AEF30AD008930AE000D300A168A1192
:1015780090230A128A150A168A1187200A128A15D8
:10158800831203132408B1002508B2000230A60014
:101598000030A7000A168A118E200A128A158312B3
:1015A80003132508A9002408A8000A168A11B925DA
:1015B8000A128A15831203133208803AB3002708E7
:1015C800803A3302031DEA2A260831020318F92A51
:1015D80083120313AC01AC0A0F30AD008830AE00A3
:1015E8000B300A168A119023080083120313AC01EA
:1015F800AC0AED30AD008930AE000B300A168A1106
:101608009023080083120313AC01AC0AED30AD003F
:101618008930AE000B300A168A1190230A128A15F7
:1016280083120313AC01AC0ABA30AD008730AE00A8
:101638000F300A168A1190230A128A150A168A117F
:1016480087200A128A15831203132408B10025087B
:10165800B2000230A6000030A7000A168A118E20B8
:101668000A128A15831203132508A9002408A80062
:101678000A168A11B9250A128A1583120313320829
:10168800803AB3002708803A3302031D4D2B260801
:10169800310203185C2B83120313AC01AC0A0F3020
:1016A800AD008830AE000D300A168A11902308006C
:1016B80083120313AC01AC0AEF30AD008930AE00E1
:1016C8000D300A168A119023080083120313AC0107
:1016D800AC0AEF30AD008930AE000D300A168A1121
:1016E80090230A128A1583120313AC01AC0AE53061
:1016F800AD008930AE0000300A168A1190230A1214
:101708008A150A168A1187200A128A15831203136A
:101718002408B1002508B2000230A6000030A70056
:101728000A168A118E200A128A15831203132508B5
:10173800A9002408A8000A168A11B9250A128A15D0
:10174800831203133208803AB3002708803A330221
:10175800031DB02B260831020318BF2B8312031375
:10176800AC01AC0A0F30AD008830AE000F300A165D
:101778008A119023080083120313AC01AC0ABA3013
:10178800AD008730AE000F300A168A11902308008A
:1017980001300A168A1104250A128A1583120313C6
:1017A800AC012130AD008930AE0000300A168A1134
:1017B80090230A128A15063083120313B3001330DC
:1017C800B200AD30B100B10BE72BB20BE72BB30B76
:1017D800E72B83120313AC01F130AD008930AE0062
:1017E80006300A168A1190230A128A1510308312BD
:1017F8000313B3003930B2000D30B100B10B022C25
:10180800B20B022CB30B022C83120313AC01F5307C
:10181800AD008930AE0007300A168A1190230A12EB
:101828008A15103083120313B3003930B2000D301B
:10183800B100B10B1D2CB20B1D2CB30B1D2C831248
:101848000313AC01F730AD008930AE0008300A163A
:101858008A1190230A128A15103083120313B300D9
:101868003930B2000D30B100B10B382CB20B382C26
:10187800B30B382C83120313AC01F330AD0089305D
:10188800AE0009300A168A1190230A128A15103000
:1018980083120313B3003930B2000D30B100B10B1D
:1018A800532CB20B532CB30B532C83120313AC01E0
:1018B800AC0A4430AD008830AE0000300A168A11F8
:1018C80090230A128A15403083120313B3006A303A
:1018D800B2009730B100B10B6F2CB20B6F2CB30B69
:1018E8006F2C0800003083120313B5000030B400D9
:1018F8002530B3008030B2000A168A115E250A121C
:101908008A15FE3083120313A5008630A6000A1636
:101918008A11B2220A128A159B3083120313A5007A
:101928008930A6000A168A11B2220A128A150330D3
:1019380083120313BE008A30BD005530BC00BC0BB7
:10194800A32CBD0BA32CBE0BA32C7830831203133E
:10195800A5008930A6000A168A11B2220A128A1531
:10196800033083120313BE008A30BD005530BC001B
:10197800BC0BBC2CBD0BBC2CBE0BBC2C6B3083121F
:101988000313A5008930A6000A168A11B2220A128A
:101998008A15033083120313BE008A30BD00553008
:1019A800BC00BC0BD52CBD0BD52CBE0BD52C3230B6
:1019B80083120313A5008930A6000A168A11B222E1
:1019C8000A128A15033083120313BE008A30BD0041
:1019D8005530BC00BC0BEE2CBD0BEE2CBE0BEE2C18
:1019E800A63083120313A5008930A6000A168A11AF
:1019F800B2220A128A15033083120313BE008A30FA
:101A0800BD005530BC00BC0B072DBD0B072DBE0B10
:101A1800072DEA3083120313A5008630A6000A16A4
:101A28008A11B2220A128A15033083120313BE00E8
:101A38008A30BD005530BC00BC0B202DBD0B202DBD
:101A4800BE0B202DEF3083120313A5008730A600AC
:101A58000A168A11B222080083120313AC01D1308E
:101A6800AD008930AE0009300A168A1190230A1297
:101A78008A150D3083120313B300AF30B200B530AE
:101A8800B100B10B452DB20B452DB30B452D4C2D97
:101A980083120313AC01D530AD008930AE00093094
:101AA8000A168A1190230A128A150D30831203131D
:101AB800B300AF30B200B530B100B10B612DB20B3D
:101AC800612DB30B612D682D83120313AC01DD303A
:101AD800AD008930AE0009300A168A1190230A1227
:101AE8008A150D3083120313B300AF30B200B5303E
:101AF800B100B10B7D2DB20B7D2DB30B7D2D842D47
:101B080083120313AC01D130AD008930AE00093027
:101B18000A168A1190230A128A150D3083120313AC
:101B2800B300AF30B200B530B100B10B992DB20B94
:101B3800992DB30B992DA02D83120313AC01D53029
:101B4800AD008930AE0009300A168A1190230A12B6
:101B58008A150D3083120313B300AF30B200B530CD
:101B6800B100B10BB52DB20BB52DB30BB52DBC2DF6
:101B780083120313AC01DD30AD008930AE000930AB
:101B88000A168A1190230A128A150D30831203133C
:101B9800B300AF30B200B530B100B10BD12DB20BEC
:101BA800D12DB30BD12DD82D83120313AC01D13015
:101BB800AD008930AE0009300A168A1190230A1246
:101BC8008A150D3083120313B300AF30B200B5305D
:101BD800B100B10BED2DB20BED2DB30BED2DF42DA6
:101BE80083120313AC01D930AD008930AE0009303F
:101BF8000A168A1190230A128A150D3083120313CC
:101C0800B300AF30B200B530B100B10B092EB20B42
:101C1800092EB30B092E102E83120313AC01E130E9
:101C2800AD008930AE0009300A168A1190230A12D5
:101C38008A15123083120313B300C230B200653024
:101C4800B100B10B252EB20B252EB30B252E2C2E51
:101C5800080001300A168A1104250A128A1583120F
:101C68000313AC016630AD008830AE0000300A16B0
:101C78008A1190230A128A151A3083120313B300AB
:101C88005E30B2006D30B100B10B482EB20B482E59
:101C9800B30B482E4F2E83120313AC01AC0AAA30A3
:101CA800AD008830AE0000300A168A1190230A125F
:101CB8008A151A3083120313B3005E30B2006D30F8
:101CC800B100B10B652EB20B652EB30B652E6C2ED1
:101CD80083120313AC010030AD008830AE00003031
:101CE8000A168A1190230A128A1583120313AC016B
:101CF8003330AD008830AE0000300A168A119023C8
:101D08000A128A151A3083120313B3005E30B20028
:101D18006D30B100B10B8E2EB20B8E2EB30B8E2E02
:101D2800952E83120313AC01AC0A0030AD00883045
:101D3800AE0000300A168A1190230A128A158312FF
:101D48000313AC01AC0A1130AD008730AE0000308F
:101D58000A168A1190230A128A151A30831203135D
:101D6800B3005E30B2006D30B100B10BB92EB20BCA
:101D7800B92EB30BB92EC02E83120313AC01003059
:101D8800AD008830AE0000300A168A1190230A127E
:101D98008A1583120313AC017730AD008830AE008A
:101DA80000300A168A1190230A128A151A308312F3
:101DB8000313B3005E30B2006D30B100B10BE22EF8
:101DC800B20BE22EB30BE22EE92E83120313AC0101
:101DD800AC0A0030AD008830AE0000300A168A1117
:101DE80090230A128A15083083120313B3009D301A
:101DF800B2000530B100B10BFF2EB20BFF2EB30BB2
:101E0800FF2E01300A168A1104250A128A15063097
:101E180083120313B3001330B200AD30B100B10B1D
:101E2800132FB20B132FB30B132F83120313AC0111
:101E38001130AD008830AE0000300A168A119023A8
:101E48000A128A150D3083120313B300AF30B200A3
:101E5800B530B100B10B2E2FB20B2E2FB30B2E2F96
:101E6800352F83120313AC01AC0A2230AD00883041
:101E7800AE0000300A168A1190230A128A154030E3
:101E880083120313B3006A30B2009730B100B10B6C
:101E98004B2FB20B4B2FB30B4B2F01300A168A1165
:101EA80004250A128A15063083120313B30013306F
:101EB800B200AD30B100B10B5F2FB20B5F2FB30B87
:101EC8005F2F83120313AC011030AD008930AE00D0
:101ED80000300A168A1190230A128A1583120313F6
:101EE800AC01AC0ACC30AD008830AE0000300A1628
:101EF8008A1190230A128A151A3083120313B30029
:101F08005E30B2006D30B100B10B882FB20B882F54
:101F1800B30B882F8F2F83120313AC01EE30AD0063
:101F28008830AE0000300A168A1190230A128A15EA
:101F380083120313AC01AC0ADD30AD008830AE006B
:101F480000300A168A1190230A128A151230831259
:101F58000313B300C230B2006530B100B10BB22F29
:101F6800B20BB22FB30BB22FB92F83120313AC01EC
:101F7800FF30AD008830AE0000300A168A11902379
:101F88000A128A1583120313AC01AC0ACC30AD00D7
:101F98008830AE0000300A168A1190230A128A157A
:101FA8001A3083120313B3005E30B2006D30B100F3
:101FB800B10BDC2FB20BDC2FB30BDC2FE32F01307E
:101FC8000A168A1104250A128A1506308312031389
:101FD800B3001330B200AD30B100B10BF12FB20B2A
:101FE800F12FB30BF12F0A168A1139210A128A151B
:101FF8000A168A1153210800FF1B0A2883137F1829
:1020080083170008840A0319FF0A08007F087F392C
:0C2018008A000408840A0319FF0A8200F1
:1020D20083120313070C0139080083120313070844
:1020E2000139080083120313A40024089900080090
:1020F20083120313070CA400240C01390800831275
:1021020003132508CC002408CB0008008312031314
:102112004A08A5004908A4000800831203134C08CA
:10212200A5004B08A40008008316031307148714A4
:102132000715831203130710871007110800831273
:102142000313181DA62801300800981CAA28023083
:1021520008000030080083120313181DB2289813D8
:10216200BA28981CB6281812BA281A080A168A1110
:10217200BF21831203139817181608008312031342
:102182008601F030A70027089705831603178901F7
:1021920002308316031386008312031306160030DF
:1021A2000A168A11ED20080083120313AB003F3098
:1021B2002B05A900C030AA002A08A40028080A1288
:1021C2008A15F9210A168A11831203132907803806
:1021D2000A168A110425080083120313A500803011
:1021E200A4002408A6008611260803190429061152
:1021F200250826050319FF280614002906100310D6
:10220200A60C0615F52886150800803083120313E4
:10221200A4002408A600A501861186152608031924
:102222001D290611861C19292608A4002408A504C4
:102232000310A60C06150F29250808000A168A1194
:1022420069200A168A1183120313A4002408A60027
:102252002608031D32295003031D3229A501A50AB0
:102262003329A5012608A4002408D0002508080067
:102272000A168A1179200A168A1183120313A500FD
:102282002508A7002708031D4C294F03031D4C29CD
:10229200A601A60A4D29A6012708A5002508CF00F8
:1022A200260808000A168A116E200A168A1183125D
:1022B2000313A4002408A6002608031D66294E0362
:1022C200031D6629A501A50A6729A5012608A40000
:1022D2002408CE002508080064308312031381000D
:1022E2000130C9070318CA0A0030CA074A08803AEF
:1022F200F0004C08803A7002031D81294B08490204
:10230200031C080083120313C901CA0108008B13BE
:102312008316031788018316031305168112811190
:10232200011581100110011664308312031381001C
:10233200BC30A4000230A5000A168A1180208B1638
:102342008B1708001E3083120313A4000030A5006F
:102352004D08AB00AC01AB09AC09AB0A0319AC0ADE
:102362007C082B07A6002C0803182C0AA7000A16C3
:102372008A110D248312031324080800FB007B0832
:10238200F7007C08A03E84007708831380001E308B
:10239200F0000030F1000130F7007708FC077C08FC
:1023A200F800F9017808F2007908F3000A168A1198
:1023B200C2237008FA007A08FC00080001300A16ED
:1023C2008A1104250A168A1183120313AC01BB3049
:1023D200AD008830AE0000300A168A1190230A162A
:1023E2008A1183120313AC01AC0A5530AD00883058
:1023F200AE0000300A168A119023080001300A1636
:102402008A1104250A168A1183120313AC0188303B
:10241200AD008830AE0000300A168A1190230A16E9
:102422008A1183120313AC01AC0A5530AD00883017
:10243200AE0000300A168A119023080001300A16F5
:102442008A1104250A168A1183120313AC019930EA
:10245200AD008830AE0000300A168A1190230A16A9
:102462008A1183120313AC01AC0A5530AD008830D7
:10247200AE0000300A168A11902308008B138316CF
:1024820003138C1E4D2A831203138C1E4D2A0A1627
:102492008A11AC200A168A118B1A0B1D562A0B11AF
:1024A2000A168A116D210A168A118B1783120313D9
:1024B2002308FF0022088A0021088400200E8300DE
:1024C200FE0E7E0E090083120313A6002608A50045
:1024D2002508A8002408A5002508A70041302802E5
:1024E200031C752A3730762A3030A8024130270281
:1024F200031C7D2A37307E2A3030A702A80EF03026
:10250200A80528082704A5002508D50055080800B5
:1025120083120313AF014D087C060319B02A4D083C
:10252200A03E840083130008AB002B08AF001E30CE
:10253200A4000030A5000130AB002B08CD074D08E8
:10254200AC00AD012C08A6002D08A7000A168A11BE
:102552000D24831203132408AE002E08CD002F0889
:102562000800831203132608FF00250884000A16B8
:102572008A1100200A168A11003A031908008316EC
:102582000313981CC02A831203132608FF00250890
:1025920084000A168A1100200A168A110A168A1164
:1025A20073200A168A11013083120313A507031838
:1025B200A60AB22A83120313181DF12A98130330B4
:1025C20083120313A6008A30A5005530A400A40B81
:1025D200E82AA50BE82AA60BE82A83120313981708
:1025E200981C08001812033083120313A6008A30C5
:1025F200A5005530A400A40BFC2AA50BFC2AA60BAF
:10260200FC2A831203131816080083120313A50071
:1026120025080F39A4002408A6002508F039A400D3
:102622002408A700A70E0F30A7050A302602031CB4
:102632001C2B37301D2B3030A4002408A6070A308B
:102642002702031C262B3730272B3030A400240806
:10265200A7072708A4002408D3002608A4002408FA
:10266200D40008000A168A1106210A168A1183125A
:102672000313A8002808D1005108520603190800C4
:102682000A168A1106210A168A110A168A110623C7
:102692000A168A118312031353080A168A11732029
:1026A2000A168A118312031354080A168A11732018
:1026B200831203135108A8002808D20008008312CD
:1026C2000313A5002508A4002408A6000816260E58
:1026D2000F39A40008082406F0392406880088125D
:1026E200413083120313A400A40B752B782B8312A1
:1026F20003138816081626080F39A40008082406B2
:10270200F039240688008812413083120313A40092
:10271200A40B892B8C2B83120313881608008312B7
:102722000313B0002C08AF002F08A80030080A16C7
:102732008A11D5200A168A11831203132E08FF006C
:102742002D0884000A168A1100200A168A11003AFE
:1027520003190800831203132E08FF002D088400BA
:102762000A168A1100200A168A110A168A11602393
:102772000A168A11013083120313AD070318AE0A39
:102782009D2BF601F31FCC2BF209F309F20A031970
:10279200F30AF601F60AF11FD32BF009F109F00A48
:1027A2000319F10A700871040319002CF501F50AE6
:1027B200F11BE72B01300310F00DF10DFF3E031D5D
:1027C200DC2B0130F4007408F507D92B7108730271
:1027D200031DED2B70087202031CF52B7008F20228
:1027E2007108031CF303F30201300310F10CF00C27
:1027F200FF3E031DF62B0130F502031DE72B760881
:102802000319082CF209F309F20A0319F30A7308EF
:10281200F1007208F000080083120313AA01A71F37
:10282200192CA609A709A60A0319A70AAA01AA0A26
:10283200A51F202CA409A509A40A0319A50A240886
:10284200250403194D2CA901A90AA51B342C01301A
:102852000310A40DA50DFF3E031D292C0130A80075
:102862002808A907262C25082702031D3A2C24082C
:102872002602031C422C2408A6022508031CA703D7
:10288200A70201300310A50CA40CFF3E031D432C2C
:102892000130A902031D342C2A080319552CA6095C
:1028A200A709A60A0319A70A2708A5002608A40053
:1028B200080083120313AC01AC0AC230AD008930A8
:1028C200AE0000300A168A1190230A168A110A16DF
:1028D2008A1187200A168A11831203132408B10071
:1028E2002508B2000230A6000030A7000A168A119D
:1028F2008E200A168A11831203132508A9002408C0
:10290200A8000A168A11B9250A168A11831203131E
:102912003208803AB3002708803A3302031D932C11
:10292200260831020318A22C83120313AC01AC0A4D
:102932000D30AD008830AE000D300A168A1190239A
:10294200080083120313AC01AC0AEB30AD008730F0
:10295200AE000D300A168A11902308008312031369
:10296200AC01AC0AEB30AD008730AE000D300A1678
:102972008A1190230A168A110A168A1187200A16CA
:102982008A11831203132408B1002508B200023011
:10299200A6000030A7000A168A118E200A168A1194
:1029A200831203132508A9002408A8000A168A1115
:1029B200B9250A168A11831203133208803AB3002A
:1029C2002708803A3302031DE82C26083102031837
:1029D200F72C83120313AC01AC0A0930AD00883026
:1029E200AE0000300A168A119023080083120313E6
:1029F200AC01AC0AC230AD008930AE0000300A161C
:102A02008A119023080083120313A6002608A4004B
:102A12002408A7000812270E0F39A400080824066C
:102A2200F039240688008812260303191C2D02306F
:102A32002606031D282D213083120313A5007530AD
:102A4200A400A40B222DA50B222D272D2F2D4130C2
:102A520083120313A400A40B2C2D2F2D8312031316
:102A620088162030260603190800081227080F3995
:102A7200A40008082406F0392406880088122603D8
:102A82000319472D02302606031D532D21308312D0
:102A92000313A5007530A400A40B4D2DA50B4D2DDD
:102AA200522D5A2D413083120313A400A40B572D2B
:102AB2005A2D831203138816080083120313320857
:102AC200B6003308B7003408B8003508B900023040
:102AD2000310B60DB70DB80DB90DFF3E031D692DDC
:102AE2003908A7003808A6003708A5003608A40050
:102AF2000130AB003130AA002D30A9000030A8000F
:102B02000A168A1114260A168A118312031324083C
:102B1200FF3EBA0025080318013EFF3EBB003A08FB
:102B2200831603139900831203133B0883160313BE
:102B32009A001812831603178715831603131815A4
:102B42008312031398178316031398168312031321
:102B5200181683160313181318108312031318136D
:102B620018108316031314168C160B178B170800F4
:102B720083120313AC01A71FC52DA609A709A60A34
:102B82000319A70AAC01AC0AA91FD02DA809A909EB
:102B9200A80A0319A90A0130AA002A08AC06AD0145
:102BA200AE01260827040319072EAB01AB0AA71BA7
:102BB200E62D01300310A60DA70DFF3E031DDB2DF0
:102BC2000130AA002A08AB07D82D01300310AD0D41
:102BD200AE0DFF3E031DE72D27082902031DF32D2D
:102BE20026082802031CFC2D2608A8022708031C1D
:102BF200A903A9022D1401300310A70CA60CFF3E55
:102C0200031DFD2D0130AB02031DE62D2C08031917
:102C12000F2EAD09AE09AD0A0319AE0A2E08A700A0
:102C22002D08A6000800003083120313B000003004
:102C3200AF000030AE000030AD00270826042504A6
:102C4200240403196B2EB101B10AA71B362E0130E1
:102C5200AC000310A40DA50DA60DA70DAC0B2A2EDA
:102C62000130AC002C08B107262E0130AC00031055
:102C7200AD0DAE0DAF0DB00DAC0B382E27082B02EB
:102C8200031D4D2E26082A02031D4D2E250829025A
:102C9200031D4D2E24082802031C5E2E2408A802C0
:102CA2002508031C250FA9022608031C260FAA02C9
:102CB2002708031C270FAB022D1401300310A70CA9
:102CC200A60CA50CA40CFF3E031D5F2E0130B10221
:102CD200031D362E3008A7002F08A6002E08A500D7
:102CE2002D08A400080083120313AC01AC0ABA3009
:102CF200AD008730AE000F300A168A1190230A16F3
:102D02008A1183120313AC01AC0AE730AD0089309B
:102D1200AE0002300A168A1190230A168A110A1688
:102D22008A1187200A168A11831203132408B1001C
:102D32002508B2000230A6000030A7000A168A1148
:102D42008E200A168A11831203132508A90024086B
:102D5200A8000A168A11B9250A168A1183120313CA
:102D62003208803AB3002708803A3302031DBB2E93
:102D7200260831020318CA2E83120313AC01AC0ACF
:102D82000F30AD008830AE0000300A168A11902351
:102D9200080083120313AC01AC0AE530AD008930A0
:102DA200AE0000300A168A11902308008312031322
:102DB200AC01AC0AE530AD008930AE0000300A1635
:102DC2008A1190230A168A1183120313AC01AC0AEA
:102DD200FD30AD008830AE0004300A168A1190230F
:102DE2000A168A110A168A1187200A168A11831274
:102DF20003132408B1002508B2000230A6000030F7
:102E0200A7000A168A118E200A168A11831203134A
:102E12002508A9002408A8000A168A11B9250A164D
:102E22008A11831203133208803AB3002708803ACA
:102E32003302031D1E2F2608310203182D2F831281
:102E42000313AC01AC0A0F30AD008830AE00023083
:102E52000A168A119023080083120313AC01AC0AEC
:102E6200E730AD008930AE0002300A168A11902395
:102E7200080083120313AC01AC0AE730AD008930BD
:102E8200AE0002300A168A1190230A168A118312A2
:102E92000313AC01AC0AE930AD008930AE00063054
:102EA2000A168A1190230A168A110A168A11872095
:102EB2000A168A11831203132408B1002508B200EE
:102EC2000230A6000030A7000A168A118E200A16C8
:102ED2008A11831203132508A9002408A8000A16E0
:102EE2008A11B9250A168A11831203133208803A0D
:102EF200B3002708803A3302031D812F26083102CE
:102F02000318902F83120313AC01AC0A0F30AD00EB
:102F12008830AE0004300A168A119023080083120A
:102F22000313AC01AC0AFD30AD008830AE000430B2
:102F32000A168A119023080083120313AC01AC0A0B
:102F4200FD30AD008830AE0004300A168A1190239D
:102F52000A168A1183120313AC01AC0AEB30AD00DE
:102F62008930AE0009300A168A1190230A168A1196
:102F72000A168A1187200A168A118312031324085B
:102F8200B1002508B2000230A6000030A7000A16E0
:102F92008A118E200A168A11831203132508A900AA
:102FA2002408A8000A168A11B9250A168A11831262
:102FB20003133208803AB3002708803A3302031D14
:102FC200E42F260831020318F32F83120313AC01F6
:102FD200AC0A0F30AD008830AE0006300A168A11F6
:102FE2009023080083120313AC01AC0AE930AD0050
:0E2FF2008930AE0006300A168A1190230800BE
:04400E00E2EFFFFFDF
:00000001FF
