:060000000A128A11122809
:10000800FE00030EF6000408F7000A08F800831241
:1000180003137F08F9000A168A11E6290A128A11C1
:100028001528F001F101F201F301F40183132030E6
:10003800840047300A168A11AF2183010A128A11F7
:1000480025280A168A11B7210A128A110A168A1156
:1000580058240A128A110A168A11AF220A128A1122
:10006800003083120313D8000030D7002530D600A3
:100078008030D5000A168A111C260A128A110A1223
:100088008A11E9240A128A11D23083120313E80074
:100098000030E900E701E601812C0A128A15CC2319
:1000A8000A128A11C3290A168A110A230A128A1106
:1000B8000A30722C0A168A11CA220A128A111430BE
:1000C800722C0A168A11EA220A128A111E30722C20
:1000D8000A168A1146220A128A11003A03197A2846
:1000E800023083120313E8000030E9000A168A116F
:1000F80060220A128A11003A0319882803308312F1
:100108000313E8000030E9000A168A117A220A125D
:100118008A11003A0319812C6430722C0A168A114C
:1001280046220A128A11003A0319A02803308312C2
:100138000313E8000030E9000A168A1160220A1247
:100148008A11003A0319AE28013083120313E8001C
:100158000030E9000A168A117A220A128A11003A36
:100168000319812CC830722C0A168A1146220A12E9
:100178008A11003A0319C628013083120313E800D4
:100188000030E9000A168A1160220A128A11003A20
:100198000319D428023083120313E8000030E90061
:1001A8000A168A117A220A128A11003A0319E228D9
:1001B8002C3083120313E8000130E9000A168A1173
:1001C80088210A128A1183120313E2000A168A117F
:1001D80093210A128A118312031362050319812CD1
:1001E8009A30E8000230762C01300A168A11C225AE
:1001F8000A128A1183120313CF01CD30D000863042
:10020800D10000300A168A1126240A128A11831294
:100218000313CF01CF0ADE30D0008630D100003082
:100228000A168A1126240A128A116E30722C0A16AE
:100238008A116D250A128A110A168A1160220A1279
:100248008A11003A03192C2983120313E601E60ADE
:100258000A168A117A220A128A11003A03195429B5
:100268006F304F290A168A1118250A128A110A16A0
:100278008A1146220A128A11003A03194629831262
:100288000313E6010A168A117A220A128A11003A21
:1002980003195429703083120313E8000030E90071
:1002A8000A168A1193210A128A1183120313E20093
:1002B8000A168A1183210A128A118312031362050E
:1002C8000319812C0A30742C6608003A03191B297B
:1002D800013A03193629812C812C01300A168A111A
:1002E800C2250A128A1183120313CF017430D00079
:1002F8008830D10000300A168A1126240A128A1181
:1003080083120313CF01CF0A4230D0008830D100C6
:1003180000300A168A1126240A128A110A128A152E
:1003280076240A128A11BE2901300A168A11C225BA
:100338000A128A1183120313CF017430D000883057
:10034800D10000300A168A1126240A128A11831253
:100358000313CF01CF0A9430D0008830D100003089
:100368000A168A1126240A128A110A128A152B23C0
:100378000A128A110A128A1530250A128A110130C6
:10038800722C01300A168A11C2250A128A118312A8
:100398000313CF019A30D0008630D10000300A16FE
:1003A8008A1126240A128A1183120313CF01CF0A55
:1003B8003430D0008630D10000300A168A11262445
:1003C8000A128A11D230722C01300A168A11C225FB
:1003D8000A128A1183120313CF012330D00086300A
:1003E800D10000300A168A1126240A128A118312B3
:1003F8000313CF01CF0A4530D0008630D10000303A
:100408000A168A1126240A128A1183120313E50197
:10041800E50A061283120313650803191E2A0A1631
:100428008A11C2210A128A110A168A11A0230A12F5
:100438008A110E2A06160230742C01300A168A1107
:10044800C2250A128A1183120313CF01BC30D000CF
:100458008630D10000300A168A1126240A128A1121
:100468002D30B02ACF01CF0A7830D0008630D100A5
:1004780000300A168A1126240A128A110A168A11CD
:1004880046220A128A11003A031D522A0A168A11B4
:1004980060220A128A11003A0319582A2E30831250
:1004A8000313E8000130E9000A168A117A220A12B9
:1004B8008A11003A03192A2C3130252CCF01CF0A92
:1004C8008930D0008630D10000300A168A112624DF
:1004D8000A128A110A168A1146220A128A11003A49
:1004E800031D7E2A0A168A1160220A128A11003A0E
:1004F8000319842A2D3083120313E8000130E90020
:100508000A168A117A220A128A11003A03192A2C29
:100518003230252C01300A168A11C2250A128A1196
:1005280083120313CF016730D0008630D10000302A
:100538000A168A1126240A128A1183120313CF017C
:10054800CF0AAB30D0008630D10000300A168A11AD
:1005580026240A128A11363083120313E800013068
:10056800762C01300A168A11C2250A128A118312C2
:100578000313CF015630D0008630D10000300A1660
:100588008A1126240A128A110D3083120313E400FB
:10059800AF30E300B530E200E20BD02AE30BD02AFB
:1005A800E40BD02AD72A712C0A168A11D7260A12E8
:1005B8008A110A168A1146220A128A11003A031968
:1005C800EB2A073083120313E2006208E7000A16D9
:1005D8008A1160220A128A11003A0319F72A831233
:1005E8000313E701E70A0A168A117A220A128A1106
:1005F800003A03192A2C3730252C0A168A113A2773
:100608000A128A110A168A1146220A128A11003A17
:100618000319112B83120313E7010A168A116022AA
:100628000A128A11003A03191F2B0230831203138E
:10063800E2006208E7000A168A117A220A128A1171
:10064800003A03192A2C3830252C0A168A119D27BE
:100658000A128A110A168A1146220A128A11003AC7
:1006680003193A2B83120313E701E70A0A168A11C2
:1006780060220A128A11003A0319482B03308312A8
:100688000313E2006208E7000A168A117A220A12A6
:100698008A11003A03192A2C3930252C0A128A1596
:1006A8003C210A128A110A168A1146220A128A1154
:1006B800003A0319652B023083120313E200620823
:1006C800E7000A168A1160220A128A11003A0319F1
:1006D800732B043083120313E2006208E7000A1642
:1006E8008A117A220A128A11003A03192A2C3A30FE
:1006F800252C0A128A159F210A128A110A168A11B4
:1007080046220A128A11003A0319902B03308312E9
:100718000313E2006208E7000A168A1160220A122F
:100728008A11003A03199E2B053083120313E20045
:100738006208E7000A168A117A220A128A11003A18
:1007480003192A2C3B30252C0A128A1502220A1278
:100758008A110A168A1146220A128A11003A0319C6
:10076800BB2B043083120313E2006208E7000A1669
:100778008A1160220A128A11003A0319C92B06301D
:1007880083120313E2006208E7000A168A117A222C
:100798000A128A11003A03192A2C3C30252C0A1215
:1007A8008A1565220A128A110A168A1146220A1225
:1007B8008A11003A0319E62B053083120313E2006D
:1007C8006208E7000A168A1160220A128A11003AA2
:1007D8000319F42B073083120313E2006208E700C1
:1007E8000A168A117A220A128A11003A03192A2C47
:1007F8003D30252C0A128A15C8220A128A110A16B7
:100808008A1146220A128A11003A0319112C06305D
:1008180083120313E2006208E7000A168A116022B5
:100828000A128A11003A03191C2C83120313E701D8
:100838000A168A117A220A128A11003A03192A2CF6
:100848003E3083120313E8000130E9000A168A11CA
:1008580093210A128A1183120313E2000A168A11DD
:1008680083210A128A118312031362050319812C4A
:100878001E30742C6708003A0319D82A013A031964
:10088800012B033A0319292B013A0319522B073A72
:1008980003197D2B013A0319A82B033A0319D32B0B
:1008A800013A0319FE2B812C812C01300A168A117A
:1008B800C2250A128A1183120313CF017430D000A3
:1008C8008830D10000300A168A1126240A128A11AB
:1008D8000A128A1530250A128A110330831203136B
:1008E800E8000030E900812C0A128A152D260A1228
:1008F8008A1183120313E801E901831203136908BB
:10090800003A03198E2C013A0319B72C033A03193C
:10091800E32C812C6808003A03195128013A03197D
:100928005728033A03195E28013A03196528093A3A
:1009380003196C281E3A031992280A3A0319B82891
:100948007A3A0319F8280A3A03196829013A031967
:1009580071291F3A03199829B83A0319C5291A3A6F
:100968000319E829812C68082C3A0319212A013A2D
:100978000319362A033A0319622A1F3A03198E2AE1
:10098800033A0319B52A043A03193E2C013A03190C
:10099800592C0F3A0319592C013A0319592C033AC7
:1009A8000319592C013A0319592C073A0319592CE0
:1009B800013A0319592C033A0319592C812C680858
:1009C8009A3A0319782C812C812C831203138601FF
:1009D800F030CA004A0897058316031789010230C8
:1009E80083160313860083120313061600300A16B3
:0609F8008A111422080020
:100A0000413454342B3450344134493452343D341D
:100A100033344434423441342C34383438342C3474
:100A20003634383437344134373434342C34323477
:100A300030340D340A340034413454342B345034BF
:100A40004134493452343D34393438344434333405
:100A50002C34423431342C3446344434343433343A
:100A6000453439342C34323430340D340A340034C3
:100A7000413454342B3450344134493452343D34AD
:100A800030343034313433342C34453446342C341F
:100A90003034303431343434423442342C3432340F
:100AA00030340D340A340034413454342B3442345D
:100AB00049344E3444343D34333444344234413484
:100AC0002C34383438342C343634383437344134D8
:100AD000373434340D340A340034413454342B3434
:100AE0004C3449344E344B343D3433344434423442
:100AF00041342C34383438342C34363438343734A8
:100B00004134373434340D340A34003441345434ED
:100B10002B34423449344E3444343D34393438343F
:100B2000443433342C34423431342C344634443459
:100B300034343334453439340D340A3400344134D8
:100B400054342B344C3449344E344B343D343934E2
:100B50003834443433342C34423431342C34463435
:100B6000443434343334453439340D340A340034A5
:100B7000413454342B34423449344E3444343D34BB
:100B800030343034313433342C34453446342C341E
:100B90003034303431343434423442340D340A3455
:100BA0000034413454342B344C3449344E344B34B7
:100BB0003D3430343034313433342C3445344634DD
:100BC0002C343034303431343434423442340D3403
:100BD0000A340034413454342B344E3441344D34CF
:100BE00045343D34223445347334633472346134D3
:100BF00076346F3422340D340A34003441345434A2
:100C00002B3455344134523454343D343934363431
:100C1000303430342C3430342C3430340D340A3405
:100C200000344734413442345234493445344C342E
:100C30002034473445344E34553420342034203465
:100C400020342034003420342034203420345434F0
:100C500052344F34433441344E3444344F342034CE
:100C60002034203420340034203420342034203404
:100C70004434453420344434413444344F345334C0
:100C800020342034203420340034203420342034E4
:100C900049344E3446344F3452344D344134433465
:100CA00041344F342034203420340034443445342B
:100CB000533443344F344E34453443345434413444
:100CC0004E3444344F342034203420340034203423
:100CD0005034413452344534413452342034433456
:100CE0004F344D34203449345034203420340034CF
:100CF0005034413452344534413452342034203459
:100D000020342034203420344234543420342034ED
:100D1000003444344534533443344F344E34453432
:100D20004334543441345234203442345434203423
:100D300020340034203443344F344E344634493464
:100D400052344D3441342034543452344F344334CB
:100D500041342034003431342034323420343334BC
:100D600020343434203420343534203436342034A4
:100D7000373420343834003442344C34553445341C
:100D800054344F344F345434483420343C342D34AC
:100D90002D342D342D343E3400344D344F3444340E
:100DA00055344C344F342034203444344534533497
:100DB00045344A34413444344F3400344534533498
:100DC00054344534493452344134203420342034AE
:100DD00020342034203443344C34503400344134F3
:100DE00054342B3450345334573444343D34223447
:100DF000303439343134303422340D340A34003450
:100E00002034203420342034203420342034203442
:100E10002034203420342034203420342034203432
:100E20000034203420342034203420342034413421
:100E30005234523449342034203420342034203485
:100E400020340034203420342034203420344534FD
:100E50004734553441344134413420342034203433
:100E60002034203400344734553449342E3420346F
:100E70005234493442344534493452344F342034A6
:100E800020342034203400342034203420342034E2
:100E90005434653463346E346F346C346F34673477
:100EA00020342034203420340034203420342034C2
:100EB0002D342D342D342D342D342D342D342D342A
:100EC0002D342D3420342034203400345734413430
:100ED0004C344C3441344334453420345034493458
:100EE00052344534533420342034203400344C34CC
:100EF00049344E3443344F344E3420344E344F341E
:100F000056344134493453342034203420340034AE
:100F100020342034203450346134723465346134E8
:100F20006D3465346E3474346F342034203420349E
:100F3000003420342034203443346F346E3466342B
:100F40006934673475347234613472342034203437
:100F5000203400344D344134543445345534533402
:100F60002034503449344E344834453449345234B2
:100F70004F3420340034203445346E3476346934B0
:100F80006F34203464346534203444346134643440
:100F90006F3473342034003421342A342D342A340D
:100FA00020344534473455344134413441342034BD
:100FB0002A342D342A34213400343134333420346B
:100FC000203420344534473455344134413441349D
:100FD0002034203420343534303400343534303447
:100FE00020342034203420344134523452344934B3
:100FF00020342034203420343134333400343A3433
:10100000333420342A342D342A3441345234523487
:1010100049342A342D342A342034583444340034AA
:101020005834443420342A342D342A344134523450
:10103000523449342A342D342A3420345834443438
:1010400000345F345F3420342034203420342034A2
:1010500020342034203420342034203420345F34B1
:101060005F340034413454342B3449344E345134D9
:101070004D343D3430342C3435342C3435340D3447
:101080000A340034203450342F342034453473343F
:10109000743465346934723461342034003441343A
:1010A00054342B3443344D344F34443445343D347C
:1010B00031340D340A340034413454342B34523436
:1010C0004F344C3445343D3430340D340A3400341C
:1010D000413454342B3452344F344C3445343D3441
:1010E00031340D340A340034203445346E347634CF
:1010F000693461346E3464346F34203400344134E4
:1011000054342B3452344D344134413444340D344E
:101110000A340034413454342B3449344E34493485
:1011200054340D340A340034203450342F342034F5
:1011300043344C34503420340034413454342B3450
:1011400049344E3451340D340A3400344534533468
:1011500054344534493452344134003450344134E9
:10116000523445344134523400342E342034203447
:10117000003420342E34203400342E342E342034E5
:101180000034203420342E3400342E342E342E34C7
:1011900000343134003432340034343400343534E3
:1011A000003436340034373400344234003465348B
:1011B00000346C340034753400340A168A117723F5
:1011C000080083120313CF01CA1FED28C909CA09F9
:1011D000C90A0319CA0ACF01CF0ACC1FF828CB09C4
:1011E000CC09CB0A0319CC0A0130CD004D08CF063B
:1011F000D001D10149084A0403192F29CE01CE0A92
:10120000CA1B0E2901300310C90DCA0DFF3E031D74
:1012100003290130CD004D08CE070029013003100D
:10122000D00DD10DFF3E031D0F294A084C02031DAE
:101230001B2949084B02031C24294908CB024A08F0
:10124000031CCC03CC02501401300310CA0CC90C8F
:10125000FF3E031D25290130CE02031D0E294F0834
:1012600003193729D009D109D00A0319D10A510825
:10127000CA005008C900080083120313CF01CF0A27
:10128000FD30D0008730D10004300A168A112624A0
:101290000A128A1583120313CF01CF0ACF30D00070
:1012A0008830D10009300A168A1126240A128A15BC
:1012B0000A168A11A1210A128A15831203134708FC
:1012C000D4004808D5000230C9000030CA000A1610
:1012D0008A11A8210A128A15831203134808CC0028
:1012E0004708CB000A128A15E1200A128A158312D8
:1012F00003135508803AD6004A08803A5602031D67
:101300008329490854020318922983120313CF0139
:10131000CF0A0F30D0008730D10006300A168A116C
:101320002624080083120313CF01CF0ACD30D0004A
:101330008830D10006300A168A112624080083124C
:101340000313CF01CF0ACD30D0008830D100063052
:101350000A168A1126240A128A1583120313CF0152
:10136000CF0AD130D0008830D1000B300A168A1154
:1013700026240A128A150A168A11A1210A128A1530
:10138000831203134708D4004808D5000230C9006F
:101390000030CA000A168A11A8210A128A1583127F
:1013A00003134808CC004708CB000A128A15E12035
:1013B0000A128A15831203135508803AD6004A0888
:1013C000803A5602031DE629490854020318F529FC
:1013D00083120313CF01CF0A0F30D0008730D10022
:1013E00009300A168A112624080083120313CF013C
:1013F000CF0ACF30D0008830D10009300A168A11C8
:101400002624080083120313CF01CF0ACF30D00067
:101410008830D10009300A168A1126240A128A154A
:1014200083120313CF01CF0AD330D0008830D1000C
:101430000D300A168A1126240A128A150A168A11F4
:10144000A1210A128A15831203134708D400480801
:10145000D5000230C9000030CA000A168A11A8213E
:101460000A128A15831203134808CC004708CB00E0
:101470000A128A15E1200A128A15831203135508ED
:10148000803AD6004A08803A5602031D492A490884
:1014900054020318582A83120313CF01CF0A0F30C6
:1014A000D0008730D1000B300A168A11262408009C
:1014B00083120313CF01CF0AD130D0008830D1007E
:1014C0000B300A168A112624080083120313CF0159
:1014D000CF0AD130D0008830D1000B300A168A11E3
:1014E00026240A128A1583120313CF01CF0ABA30B9
:1014F000D0008630D1000F300A168A1126240A1235
:101500008A150A168A11A1210A128A158312031359
:101510004708D4004808D5000230C9000030CA008E
:101520000A168A11A8210A128A1583120313480881
:10153000CC004708CB000A128A15E1200A128A154E
:10154000831203135508803AD6004A08803A56029F
:10155000031DAC2A490854020318BB2A8312031343
:10156000CF01CF0A0F30D0008730D1000D300A16DE
:101570008A112624080083120313CF01CF0AD33027
:10158000D0008830D1000D300A168A1126240800B8
:1015900083120313CF01CF0AD330D0008830D1009B
:1015A0000D300A168A1126240A128A158312031393
:1015B000CF01CF0AC930D0008830D10000300A16E0
:1015C0008A1126240A128A150A168A11A1210A12E2
:1015D0008A15831203134708D4004808D500023047
:1015E000C9000030CA000A168A11A8210A128A15F9
:1015F000831203134808CC004708CB000A128A154F
:10160000E1200A128A15831203135508803AD60086
:101610004A08803A5602031D0F2B4908540203184A
:101620001E2B83120313CF01CF0A0F30D000873057
:10163000D1000F300A168A112624080083120313E2
:10164000CF01CF0ABA30D0008630D1000F300A1651
:101650008A1126240800003083120313D8000030BA
:10166000D7002530D6008030D5000A168A111C26F6
:101670000A128A15FE3083120313C8008530C90090
:101680000A168A114E230A128A1568308312031330
:10169000C8008830C9000A168A114E230A128A151A
:1016A000033083120313E1008A30E0005530DF007D
:1016B000DF0B582BE00B582BE10B582B4F308312CC
:1016C0000313C8008830C9000A168A114E230A1273
:1016D0008A15033083120313E1008A30E00055308D
:1016E000DF00DF0B712BE00B712BE10B712B323024
:1016F00083120313C8008830C9000A168A114E23CA
:101700000A128A15033083120313E1008A30E000C5
:101710005530DF00DF0B8A2BE00B8A2BE10B8A2B85
:101720008A3083120313C8008830C9000A168A1150
:101730004E230A128A15033083120313E1008A3004
:10174000E0005530DF00DF0BA32BE00BA32BE10BF8
:10175000A32B9D3083120313C8008830C9000A16DA
:101760008A114E230A128A15033083120313E100F3
:101770008A30E0005530DF00DF0BBC2BE00BBC2BC8
:10178000E10BBC2BEF3083120313C8008630C90075
:101790000A168A114E23080001300A168A11C22542
:1017A0000A128A1583120313CF012130D00088302A
:1017B000D10000300A168A1126240A128A15063032
:1017C00083120313D6001330D500AD30D400D40BF0
:1017D000E72BD50BE72BD60BE72B83120313CF0197
:1017E000D530D0008830D10006300A168A11262460
:1017F0000A128A15103083120313D6003930D5002F
:101800000D30D400D40B022CD50B022CD60B022C9D
:1018100083120313CF01D930D0008830D1000730B4
:101820000A168A1126240A128A151030831203130D
:10183000D6003930D5000D30D400D40B1D2CD50B7B
:101840001D2CD60B1D2C83120313CF01DB30D000CF
:101850008830D10008300A168A1126240A128A1507
:10186000103083120313D6003930D5000D30D40068
:10187000D40B382CD50B382CD60B382C83120313F1
:10188000CF01D730D0008830D10009300A168A1134
:1018900026240A128A15103083120313D600393019
:1018A000D5000D30D400D40B532CD50B532CD60BB4
:1018B000532C83120313CF01CF0A4430D00087305A
:1018C000D10000300A168A1126240A128A154030E7
:1018D00083120313D6006A30D5009730D400D40B9E
:1018E0006F2CD50B6F2CD60B6F2C08000030831299
:1018F0000313D8000030D7002530D6008030D50043
:101900000A168A111C260A128A15FE308312031346
:10191000C8008530C9000A168A114E230A128A159A
:101920007F3083120313C8008830C9000A168A1159
:101930004E230A128A15033083120313E1008A3002
:10194000E0005530DF00DF0BA32CE00BA32CE10BF4
:10195000A32C5C3083120313C8008830C9000A1618
:101960008A114E230A128A15033083120313E100F1
:101970008A30E0005530DF00DF0BBC2CE00BBC2CC4
:10198000E10BBC2C4F3083120313C8008830C90010
:101990000A168A114E230A128A1503308312031382
:1019A000E1008A30E0005530DF00DF0BD52CE00B82
:1019B000D52CE10BD52C323083120313C8008830AC
:1019C000C9000A168A114E230A128A15033083129F
:1019D0000313E1008A30E0005530DF00DF0BEE2C0E
:1019E000E00BEE2CE10BEE2C8A3083120313C800BF
:1019F0008830C9000A168A114E230A128A1503304C
:101A000083120313E1008A30E0005530DF00DF0B62
:101A1000072DE00B072DE10B072DEA30831203138E
:101A2000C8008530C9000A168A114E230A128A1589
:101A3000033083120313E1008A30E0005530DF00E9
:101A4000DF0B202DE00B202DE10B202DEF3083123A
:101A50000313C8008630C9000A168A114E230800F5
:101A600083120313CF01B530D0008830D100093084
:101A70000A168A1126240A128A150D3083120313BE
:101A8000D600AF30D500B530D400D40B452DD50BE2
:101A9000452DD60B452D4C2D83120313CF01B930A4
:101AA000D0008830D10009300A168A1126240A1283
:101AB0008A150D3083120313D600AF30D500B53030
:101AC000D400D40B612DD50B612DD60B612D682D63
:101AD00083120313CF01C130D0008830D100093008
:101AE0000A168A1126240A128A150D30831203134E
:101AF000D600AF30D500B530D400D40B7D2DD50B3A
:101B00007D2DD60B7D2D842D83120313CF01B5308F
:101B1000D0008830D10009300A168A1126240A1212
:101B20008A150D3083120313D600AF30D500B530BF
:101B3000D400D40B992DD50B992DD60B992DA02D12
:101B400083120313CF01B930D0008830D10009309F
:101B50000A168A1126240A128A150D3083120313DD
:101B6000D600AF30D500B530D400D40BB52DD50B91
:101B7000B52DD60BB52DBC2D83120313CF01C1306B
:101B8000D0008830D10009300A168A1126240A12A2
:101B90008A150D3083120313D600AF30D500B5304F
:101BA000D400D40BD12DD50BD12DD60BD12DD82DC2
:101BB00083120313CF01B530D0008830D100093033
:101BC0000A168A1126240A128A150D30831203136D
:101BD000D600AF30D500B530D400D40BED2DD50BE9
:101BE000ED2DD60BED2DF42D83120313CF01BD3057
:101BF000D0008830D10009300A168A1126240A1232
:101C00008A150D3083120313D600AF30D500B530DE
:101C1000D400D40B092ED50B092ED60B092E102E6D
:101C200083120313CF01C530D0008830D1000930B2
:101C30000A168A1126240A128A15123083120313F7
:101C4000D600C230D5006530D400D40B252ED50B7C
:101C5000252ED60B252E2C2E080001300A168A11AF
:101C6000C2250A128A1583120313CF016630D000F1
:101C70008730D10000300A168A1126240A128A15EC
:101C80001A3083120313D6005E30D5006D30D400B5
:101C9000D40B482ED50B482ED60B482E4F2E831230
:101CA0000313CF01CF0AAA30D0008730D100003013
:101CB0000A168A1126240A128A151A30831203136F
:101CC000D6005E30D5006D30D400D40B652ED50B18
:101CD000652ED60B652E6C2E83120313CF010030B8
:101CE000D0008730D10000300A168A1126240A124B
:101CF0008A1583120313CF013330D0008730D1000F
:101D000000300A168A1126240A128A151A30831204
:101D10000313D6005E30D5006D30D400D40B8E2E68
:101D2000D50B8E2ED60B8E2E952E83120313CF013C
:101D3000CF0A0030D0008730D10000300A168A1157
:101D400026240A128A1583120313CF01CF0A1130F9
:101D5000D0008630D10000300A168A1126240A12DB
:101D60008A151A3083120313D6005E30D5006D3009
:101D7000D400D40BB92ED50BB92ED60BB92EC02E4C
:101D800083120313CF010030D0008730D100003020
:101D90000A168A1126240A128A1583120313CF0108
:101DA0007730D0008730D10000300A168A112624FF
:101DB0000A128A151A3083120313D6005E30D5003A
:101DC0006D30D400D40BE22ED50BE22ED60BE22ED2
:101DD000E92E83120313CF01CF0A0030D0008730E1
:101DE000D10000300A168A1126240A128A150830FA
:101DF00083120313D6009D30D5000530D400D40BD8
:101E0000FF2ED50BFF2ED60BFF2E01300A168A119E
:101E1000C2250A128A15063083120313D600133026
:101E2000D500AD30D400D40B132FD50B132FD60B08
:101E3000132F83120313CF011130D0008730D1004C
:101E400000300A168A1126240A128A150D308312D0
:101E50000313D600AF30D500B530D400D40B2E2FED
:101E6000D50B2E2FD60B2E2F352F83120313CF0118
:101E7000CF0A2230D0008730D10000300A168A11F4
:101E800026240A128A15403083120313D6006A30C2
:101E9000D5009730D400D40B4B2FD50B4B2FD60B3E
:101EA0004B2F01300A168A11C2250A128A150630F4
:101EB00083120313D6001330D500AD30D400D40BF9
:101EC0005F2FD50B5F2FD60B5F2F83120313CF012C
:101ED0001030D0008830D10000300A168A11262434
:101EE0000A128A1583120313CF01CF0ACC30D00017
:101EF0008730D10000300A168A1126240A128A156A
:101F00001A3083120313D6005E30D5006D30D40032
:101F1000D40B882FD50B882FD60B882F8F2F8312A9
:101F20000313CF01EE30D0008730D10000300A1605
:101F30008A1126240A128A1583120313CF01CF0AAD
:101F4000DD30D0008730D10000300A168A112624F7
:101F50000A128A15123083120313D600C230D5003C
:101F60006530D400D40BB22FD50BB22FD60BB22FC5
:101F7000B92F83120313CF01FF30D0008730D10077
:101F800000300A168A1126240A128A1583120313B6
:101F9000CF01CF0ACC30D0008730D10000300A16F4
:101FA0008A1126240A128A151A3083120313D600C6
:101FB0005E30D5006D30D400D40BDC2FD50BDC2F78
:101FC000D60BDC2FE32F01300A168A11C2250A1224
:101FD0008A15063083120313D6001330D500AD30B6
:101FE000D400D40BF12FD50BF12FD60BF12F0A16FD
:101FF0008A1160220A128A150A168A117A220800AA
:10200000FF1B0A2883137F1883170008840A03190B
:10201000FF0A08007F087F398A000408840A031930
:04202000FF0A820031
:1023060083120313070C013908008312031307080D
:102316000139080083120313C70047089900080013
:1023260083120313070CC700470C013908008312F8
:1023360003134808C1004708C000080083120313AE
:102346003F08C8003E08C70008008312031341086F
:10235600C8004008C700080064008001840A04061B
:10236600031900340406B0298316031307148714CF
:10237600071583120313071087100711080083122D
:1023860003138C1E08000A168A118C240A168A1159
:1023960072080A168A111422831203138C1208007B
:1023A60083120313CA00C9014A1CDD294708C80065
:1023B6004808C9070310C70D0310CA0C4A08031DB5
:1023C600D729490808008B1A0B1DEF290B110A168D
:1023D6008A1194220A168A11790883120313FF00C0
:1023E60078088A0077088400760E8300FE0E7E0E3B
:1023F600090083120313CE003F304E05CC00C030D7
:10240600CD004D08C7004B080A168A11D3210A16BB
:102416008A11831203134C0780380A168A11C225C3
:10242600080083120313C8008030C7004708C9009C
:102436008611490803192B2A06114808490503196C
:10244600262A0614272A06100310C90C06151C2A6C
:1024560086150800803083120313C7004708C90099
:10246600C8018611861549080319442A0611861CD7
:10247600402A4908C7004708C8040310C90C0615B6
:10248600362A480808000A168A1183210A168A1174
:1024960083120313C7004708C9004908031D592AB8
:1024A6004503031D592AC801C80A5A2AC801490802
:1024B600C7004708C500480808000A168A11932174
:1024C6000A168A1183120313C8004808CA004A086C
:1024D600031D732A4403031D732AC901C90A742AFA
:1024E600C9014A08C8004808C400490808000A1675
:1024F6008A1188210A168A1183120313C700470816
:10250600C9004908031D8D2A4303031D8D2AC801EE
:10251600C80A8E2AC8014908C7004708C3004808E8
:10252600080064308312031381000130BE070318CC
:10253600BF0A0030BF073F08803AF5004108803ADD
:102546007502031DA82A40083E02031C08008312D8
:102556000313BE01BF0108008B13831603178801FE
:1025660083160313051681128111011581100110BE
:1025760001166430831203138100BC30C700023099
:10258600C8000A168A119A218B168B17080001308B
:102596000A168A11C2250A168A1183120313CF015D
:1025A600BB30D0008730D10000300A168A112624AD
:1025B6000A168A1183120313CF01CF0A5530D000B1
:1025C6008730D10000300A168A112624080001300F
:1025D6000A168A11C2250A168A1183120313CF011D
:1025E6008830D0008730D10000300A168A112624A0
:1025F6000A168A1183120313CF01CF0A5530D00071
:102606008730D10000300A168A11262408000130CE
:102616000A168A11C2250A168A1183120313CF01DC
:102626009930D0008730D10000300A168A1126244E
:102636000A168A1183120313CF01CF0A5530D00030
:102646008730D10000300A168A112624080083122A
:102656000313D2005208CE007008203E84004E08B4
:10266600831380001E30C7000030C8000130CE0042
:102676004E08F0077008CF00D0014F08C900500877
:10268600CA000A168A11CB24831203134708D10005
:102696005108F0000800831203134908FF00480898
:1026A60084000A168A1100200A168A11003A0319B4
:1026B600080083160313981C5C2B83120313490826
:1026C600FF00480884000A168A1100200A168A119B
:1026D6000A168A118D210A168A11013083120313F4
:1026E600C8070318C90A4E2B83120313D2014208E6
:1026F600700603199E2B4208203E840083130008AF
:10270600CE004E08D2001E30C7000030C80001308F
:10271600CE004E08C2074208CF00D0014F08C900BC
:102726005008CA000A168A11CB24831203134708DD
:10273600D1005108C200520808000A168A112D223B
:102746000A168A1183120313CB004B08F100710895
:102756004606031908000A168A112D220A168A113E
:102766000A168A11C9230A168A1173080A168A11CB
:102776008D210A168A1174080A168A118D2171088C
:1027860083120313CB004B08C60008008312031301
:10279600C80048080F39C7004708C9004808F0397B
:1027A600C7004708CA00CA0E0F30CA050A304902D8
:1027B600031CDF2B3730E02B3030C7004708C90732
:1027C6000A304A02031CE92B3730EA2B3030C700A7
:1027D6004708CA074A08C7004708F3004908C70060
:1027E6004708F400080083120313C8004808C7000E
:1027F6004708C9000816490E0F39C70008084706DA
:10280600F039470688008812413083120313C70047
:10281600C70B0B2C0E2C83120313881608164908B7
:102826000F39C70008084706F0394706880088129E
:10283600413083120313C700C70B1F2C222C8312AF
:1028460003138816080083120313D3004F08D2001F
:102856005208CB0053080A168A11FC210A168A115F
:10286600831203135108FF00500884000A168A11C8
:1028760000200A168A11003A03190800831203136E
:102886005108FF00500884000A168A1100200A1613
:102896008A110A168A11F6230A168A110130831242
:1028A6000313D0070318D10A332CF0308312031315
:1028B60088050812881683160313880103308312CD
:1028C6000313CD008A30CC005530CB00CB0B692CDE
:1028D600CC0B692CCD0B692C20300A168A11C22527
:1028E6000A168A1128300A168A11C2250A168A1172
:1028F6000C300A168A11C2250A168A1101300A16E8
:102906008A11C2250A168A1102300A168A11C225B0
:102916000800831203138C1E962C1A080A168A11B5
:102926002A230A168A110A128A15DD200A168A1126
:1029360083120313D3005308D50041305502031CFC
:10294600A62C3730A72C3030D5028C1EB02C1A0896
:102956000A168A112A230A168A110A128A15DD20F6
:102966000A168A1183120313D3005308D400413088
:102976005402031CC02C3730C12C3030D402D50E83
:10298600F030D50555085404D3005308F20008006A
:1029960083120313CD01CA1FD72CC909CA09C90A54
:1029A6000319CA0ACD01CD0AC81FDE2CC709C809FA
:1029B600C70A0319C80A4708480403190B2DCC0196
:1029C600CC0AC81BF22C01300310C70DC80DFF3E00
:1029D600031DE72C0130CB004B08CC07E42C48083C
:1029E6004A02031DF82C47084902031C002D47081C
:1029F600C9024808031CCA03CA0201300310C80CE6
:102A0600C70CFF3E031D012D0130CC02031DF22C25
:102A16004D080319132DC909CA09C90A0319CA0A97
:102A26004A08C8004908C700080083120313CF01EB
:102A3600CF0AA630D0008830D10000300A168A119D
:102A460026240A168A110A168A11A1210A168A1143
:102A5600831203134708D4004808D5000230C90082
:102A66000030CA000A168A11A8210A168A11831292
:102A760003134808CC004708CB000A128A15E12048
:102A86000A168A11831203135508803AD6004A089B
:102A9600803A5602031D512D490854020318602D31
:102AA60083120313CF01CF0A0D30D0008730D10037
:102AB6000D300A168A112624080083120313CF014B
:102AC600CF0AEB30D0008630D1000D300A168A11BD
:102AD6002624080083120313CF01CF0AEB30D0005F
:102AE6008630D1000D300A168A1126240A168A115C
:102AF6000A168A11A1210A168A118312031347089E
:102B0600D4004808D5000230C9000030CA000A16B1
:102B16008A11A8210A168A11831203134808CC00C9
:102B26004708CB000A128A15E1200A168A11831279
:102B360003135508803AD6004A08803A5602031D08
:102B4600A62D490854020318B52D83120313CF018D
:102B5600CF0A0930D0008730D10000300A168A111A
:102B66002624080083120313CF01CF0AA630D00013
:102B76008830D10000300A168A11262408008312F4
:102B86000313C9004908C7004708CA0008124A0EBD
:102B96000F39C70008084706F0394706880088122B
:102BA60049030319DA2D02304906031DE62D2130AB
:102BB60083120313C8007530C700C70BE02DC80B7E
:102BC600E02DE52DED2D413083120313C700C70B11
:102BD600EA2DED2D831203138816203049060319BA
:102BE600080008124A080F39C70008084706F039D6
:102BF60047068800881249030319052E0230490644
:102C0600031D112E213083120313C8007530C7002F
:102C1600C70B0B2EC80B0B2E102E182E413083120D
:102C26000313C700C70B152E182E8312031388161D
:102C36000800831203135508D9005608DA0057080E
:102C4600DB005808DC0002300310D90DDA0DDB0D6D
:102C5600DC0DFF3E031D272E5C08CA005B08C90079
:102C66005A08C8005908C7000130CE003130CD00DF
:102C76002D30CC000030CB000A168A1177260A16B2
:102C86008A11831203134708FF3EDD004808031824
:102C9600013EFF3EDE005D08831603139900831292
:102CA60003135E08831603139A001812831603177C
:102CB60087158316031318158312031398178316A3
:102CC6000313981683120313181683160313181387
:102CD60018108312031318131810831603131416EF
:102CE6008C160B178B170800003083120313D300C2
:102CF6000030D2000030D1000030D0004A0849042C
:102D0600480447040319CE2ED401D40ACA1B992EAF
:102D16000130CF000310C70DC80DC90DCA0DCF0B6A
:102D26008D2E0130CF004F08D407892E0130CF00F9
:102D36000310D00DD10DD20DD30DCF0B9B2E4A080B
:102D46004E02031DB02E49084D02031DB02E480841
:102D56004C02031DB02E47084B02031CC12E470828
:102D6600CB024808031C480FCC024908031C490F34
:102D7600CD024A08031C4A0FCE025014013003103C
:102D8600CA0CC90CC80CC70CFF3E031DC22E01306D
:102D9600D402031D992E5308CA005208C9005108CF
:102DA600C8005008C700080083120313CF01CF0ADA
:102DB600BA30D0008630D1000F300A168A11262488
:102DC6000A168A1183120313CF01CF0ACB30D00023
:102DD6008830D10002300A168A1126240A168A1172
:102DE6000A168A11A1210A168A11831203134708AB
:102DF600D4004808D5000230C9000030CA000A16BF
:102E06008A11A8210A168A11831203134808CC00D6
:102E16004708CB000A128A15E1200A168A11831286
:102E260003135508803AD6004A08803A5602031D15
:102E36001E2F4908540203182D2F83120313CF01A6
:102E4600CF0A0F30D0008730D10000300A168A1121
:102E56002624080083120313CF01CF0AC930D000FD
:102E66008830D10000300A168A1126240800831201
:102E76000313CF01CF0AC930D0008830D10000300B
:102E86000A168A1126240A168A1183120313CF0101
:102E9600CF0AFD30D0008730D10004300A168A11DF
:102EA60026240A168A110A168A11A1210A168A11DF
:102EB600831203134708D4004808D5000230C9001E
:102EC6000030CA000A168A11A8210A168A1183122E
:102ED60003134808CC004708CB000A128A15E120E4
:102EE6000A168A11831203135508803AD6004A0837
:102EF600803A5602031D812F490854020318902F69
:102F060083120313CF01CF0A0F30D0008730D100D0
:102F160002300A168A112624080083120313CF01F1
:102F2600CF0ACB30D0008830D10002300A168A1181
:102F36002624080083120313CF01CF0ACB30D0001A
:102F46008830D10002300A168A1126240A168A1100
:102F560083120313CF01CF0ACD30D0008830D100C1
:102F660006300A168A1126240A168A110A168A11AA
:102F7600A1210A168A11831203134708D4004808B0
:102F8600D5000230C9000030CA000A168A11A821ED
:102F96000A168A11831203134808CC004708CB008F
:102FA6000A128A15E1200A168A118312031355089C
:102FB600803AD6004A08803A5602031DE42F490893
:102FC60054020318F32F83120313CF01CF0A0F30D5
:102FD600D0008730D10004300A168A112624080052
:102FE60083120313CF01CF0AFD30D0008730D10002
:0A2FF60004300A168A112624080090
:04400E00E2EFFFFFDF
:00000001FF
