:020000040000FA
:060000000A128A1110280B
:10000800FE00030E83120313A0000408A1000A08CF
:10001800A2000A168A11CF290A128A111328FC0194
:1000280083134830840055300A168A111D200A129D
:100038008A11A0308400BE300A168A111D2083015F
:100048000A128A1127280A168A1125200A128A11EB
:100058000A168A11F1220A128A110A168A1118211F
:100068000A128A11003083120313B4000030B3005F
:100078002530B2008030B1000A168A11FB240A121A
:100088008A110A168A114F200A128A118312031341
:10009800C601C701C501C401312D0A128A15A22360
:1000A8000A128A11CB290A168A11AF210A128A115B
:1000B8000A30222D0A168A116F210A128A11143069
:1000C800222D0A168A118F210A128A111E30222D1A
:1000D8000A168A11AF200A128A11003A03197A28DF
:1000E800023083120313C6000030C7000A168A11B3
:1000F800C9200A128A11003A03198828033083128A
:100108000313C6000030C7000A168A11E3200A123A
:100118008A11003A0319312D6430222D0A168A11EA
:10012800AF200A128A11003A0319A028033083125B
:100138000313C6000030C7000A168A11C9200A1224
:100148008A11003A0319AE28013083120313C6003E
:100158000030C7000A168A11E3200A128A11003AF1
:100168000319312DC830222D0A168A11AF200A1220
:100178008A11003A0319C628013083120313C600F6
:100188000030C7000A168A11C9200A128A11003ADB
:100198000319D428023083120313C6000030C700A5
:1001A8000A168A11E3200A128A11003A0319E22872
:1001B8002C3083120313C6000130C7000A168A15B3
:1001C800E0270A128A1183120313BE000A168A1541
:1001D800EB270A128A11831203133E050319312DE6
:1001E8009A30C6000230262D01300A168A11A12441
:1001F8000A128A1183120313AB01BB30AC0087309B
:10020800AD0000300A128A1509220A128A118312D7
:100218000313AB01AB0ACC30AC008730AD00003023
:100228000A128A1509220A128A116E30222D0A161C
:100238008A114C240A128A110A168A11C9200A1234
:100248008A11003A03192C2983120313C401C40A22
:100258000A168A11E3200A128A11003A031954294E
:100268006F304F290A168A11F7230A128A110A16C3
:100278008A11AF200A128A11003A031946298312FB
:100288000313C4010A168A11E3200A128A11003ADC
:1002980003195429703083120313C6000030C700B5
:1002A8000A168A15EB270A128A1183120313BE0055
:1002B8000A168A15DB270A128A11831203133E05D0
:1002C8000319312D0A30242D4408BE00BF013F0810
:1002D800003A03197029312D3E08003A03191B29E9
:1002E800013A03193629312D312D01300A168A11A8
:1002F800A1240A128A1183120313AB01A030AC00A7
:100308008930AD0000300A128A1509220A128A11B2
:1003180083120313AB01AB0A6E30AC008930AD0019
:1003280000300A128A1509220A128A110A128A153D
:100338004C240A128A11C62901300A168A11A124EE
:100348000A128A1183120313AB01A030AC00893062
:10035800AD0000300A128A1509220A128A11831286
:100368000313AB01AB0AC030AC008930AD000030DC
:100378000A128A1509220A128A110A128A150123F9
:100388000A128A110A128A1506250A128A110130E0
:10039800222D01300A168A11A1240A128A11831209
:1003A8000313AB018830AC008730AD0000300A126F
:1003B8008A1509220A128A1183120313AB01AB0AA8
:1003C8002230AC008730AD0000300A128A150922AD
:1003D8000A128A11D230222D0A168A15EB270A1220
:1003E8008A1183120313BE000A168A15DB270A1224
:1003F8008A11831203133E050319062A1430C60016
:100408000030C7000A168A11E3200A128A11003A3E
:100418000319312D01300A168A11A1240A128A11F2
:1004280083120313AB011130AC008730AD000030EC
:100438000A128A1509220A128A1183120313AB01C0
:10044800AB0A3330AC008730AD0000300A128A1591
:1004580009220A128A1183120313C301C30A06125E
:10046800C32AAB01AB0A6030AC008930AD00003064
:100478000A128A1509220A128A110A168A11692291
:100488000A128A11A42A83120313AB01AB0A523051
:10049800AC008930AD0000300A128A1509220A1210
:1004A8008A110A168A1169220A128A11A42A0A16BE
:1004B8008A1133210A128A1183120313BE000230F3
:1004C8003E02031CA42A0A168A1117220A128A114C
:1004D80083120313BE003E08C1000A168A111722B0
:1004E8000A128A1183120313BE003E08C200420892
:1004F800BE003E08A30041080A168A11F2210A121A
:100508008A110A168A117D200A128A11A42A0A164B
:100518008A1130200A128A1183120313BE00BF0108
:100528003F08003A0319992A5B2A3E08003A031942
:100538005B2A013A0319472A033A0319352A5B2A29
:100548008312031354080A168A117D200A128A118D
:100558000A168A1125230A128A110A168A15EB2708
:100568000A128A1183120313BE000A168A15DB27A2
:100578000A128A11831203133E05031DC30143089F
:10058800031D8B2A06160230242D01300A168A1103
:10059800A1240A128A1183120313AB01AA30AC00FA
:1005A8008730AD0000300A128A1509220A128A1112
:1005B8002D30582BAB01AB0A6630AC008730AD004C
:1005C80000300A128A1509220A128A110A168A119B
:1005D800AF200A128A11003A031DFA2A0A168A1154
:1005E800C9200A128A11003A0319002B2E308312EF
:1005F8000313C6000130C7000A168A11E3200A1245
:100608008A11003A0319D22C3130CD2CAB01AB0A38
:100618007730AC008730AD0000300A128A15092205
:100628000A128A110A168A11AF200A128A11003A90
:10063800031D262B0A168A11C9200A128A11003AAC
:1006480003192C2B2D3083120313C6000130C70069
:100658000A168A11E3200A128A11003A0319D22CC9
:100668003230CD2C01300A168A11A1240A128A11BF
:1006780083120313AB015530AC008730AD00003056
:100688000A128A1509220A128A1183120313AB016E
:10069800AB0A9930AC008730AD0000300A128A15D9
:1006A80009220A128A11363083120313C600013058
:1006B800262D01300A168A11A1240A128A118312E2
:1006C8000313AB014430AC008730AD0000300A1290
:1006D8008A1509220A128A110D3083120313C000E9
:1006E800AF30BF00B530BE00BE0B782BBF0B782BE8
:1006F800C00B782B7F2B212D0A168A1111260A127E
:100708008A110A168A11AF200A128A11003A0319AF
:10071800932B073083120313BE003E08C5000A1648
:100728008A11C9200A128A11003A03199F2B8312D1
:100738000313C501C50A0A168A11E3200A128A1191
:10074800003A0319D22C3730CD2C0A168A11742698
:100758000A128A110A168A11AF200A128A11003A5F
:100768000319B92B83120313C5010A168A11C9206C
:100778000A128A11003A0319C72B02308312031395
:10078800BE003E08C5000A168A11E3200A128A1123
:10079800003A0319D22C3830CD2C0A168A11D726E4
:1007A8000A128A110A168A11AF200A128A11003A0F
:1007B8000319E22B83120313C501C50A0A168A110D
:1007C800C9200A128A11003A0319F02B0330831248
:1007D8000313BE003E08C5000A168A11E3200A1258
:1007E8008A11003A0319D22C3930CD2C0A168A11F5
:1007F8003A270A128A110A168A11AF200A128A1198
:10080800003A03190D2C023083120313BE003E0870
:10081800C5000A168A11C9200A128A11003A03195A
:100828001B2C043083120313BE003E08C5000A16B1
:100838008A11E3200A128A11003A0319D22C3A309D
:10084800CD2C0A168A119D270A128A110A168A11B6
:10085800AF200A128A11003A0319382C0330831288
:100868000313BE003E08C5000A168A11C9200A12E1
:100878008A11003A0319462C053083120313BE006F
:100888003E08C5000A168A11E3200A128A11003AA6
:100898000319D22C3B30CD2C0A128A153B220A129E
:1008A8008A110A168A11AF200A128A11003A03190E
:1008B800632C043083120313BE003E08C5000A16D9
:1008C8008A11C9200A128A11003A0319712C0630BC
:1008D80083120313BE003E08C5000A168A11E320DE
:1008E8000A128A11003A0319D22C3C30CD2C0A1274
:1008F8008A159E220A128A110A168A11AF200A1234
:100908008A11003A03198E2C053083120313BE0096
:100918003E08C5000A168A11C9200A128A11003A2F
:1009280003199C2C073083120313BE003E08C50030
:100938000A168A11E3200A128A11003A0319D22CE6
:100948003D30CD2C0A128A1199250A128A110A16ED
:100958008A11AF200A128A11003A0319B92C0630FD
:1009680083120313BE003E08C5000A168A11C92067
:100978000A128A11003A0319C42C83120313C50101
:100988000A168A11E3200A128A11003A0319D22C96
:100998003E3083120313C6000130C7000A168A15B9
:1009A800EB270A128A1183120313BE000A168A154E
:1009B800DB270A128A11831203133E050319312D0E
:1009C8001E30242D4508BE00BF013F08003A031918
:1009D800EE2C312D3E08003A0319802B013A0319F9
:1009E800A92B033A0319D12B013A0319FA2B073A19
:1009F8000319252C013A0319502C033A03197B2CAF
:100A0800013A0319A62C312D312D01300A168A110D
:100A1800A1240A128A1183120313AB01A030AC007F
:100A28008930AD0000300A128A1509220A128A118B
:100A38000A128A1506250A128A1103308312031333
:100A4800C6000030C700312D0A128A1503260A1283
:100A58008A1183120313C601C701831203134708BF
:100A6800003A03193E2D013A0319672D033A031979
:100A7800932D312D4608003A03195128013A0319DC
:100A88005728033A03195E28013A03196528093AD9
:100A980003196C281E3A031992280A3A0319B82830
:100AA8007A3A0319F8280A3A03196829013A031906
:100AB80079291F3A0319A029B83A0319CD291A3AF6
:100AC8000319F029312D46082C3A0319C92A013A8D
:100AD8000319DE2A033A03190A2B1F3A0319362B86
:100AE800033A03195D2B043A0319E62C013A03195A
:100AF800092D0F3A0319092D013A0319092D033A53
:100B08000319092D013A0319092D073A0319092D6B
:100B1800013A0319092D033A0319092D312D460805
:100B28009A3A0319282D312D312D83120313AB0165
:100B3800AB0AFF30AC008930AD000D300A128A15BF
:100B480009220A128A1183120313AB01AB0AF5308A
:100B5800AC008930AD0000300A128A1509220A1249
:100B68008A110A168A15F9270A128A1183120313A1
:100B78002308B0002408B1000230A5000030A60008
:100B88000A168A1116200A128A11831203132408DE
:100B9800A8002308A7000A168A1156250A128A11E6
:100BA800831203133108803AB2002608803A3202D1
:100BB800031DE02D250830020318EF2D83120313BF
:100BC800AB01AB0AFD30AC008730AD000F300A1224
:100BD8008A150922080083120313AB01AB0AA83057
:100BE800AC008730AD000F300A128A1509220800C0
:100C0000413454342B3450344134493452343D341B
:100C100033344434423441342C34383438342C3472
:100C20003634383437344134373434342C34323475
:100C300030340D340A340034413454342B345034BD
:100C40004134493452343D34393438344434333403
:100C50002C34423431342C34463444343434333438
:100C6000453439342C34323430340D340A340034C1
:100C7000413454342B3450344134493452343D34AB
:100C800030343034313433342C34453446342C341D
:100C90003034303431343434423442342C3432340D
:100CA00030340D340A340034413454342B3442345B
:100CB00049344E3444343D34333444344234413482
:100CC0002C34383438342C343634383437344134D6
:100CD000373434340D340A340034413454342B3432
:100CE0004C3449344E344B343D3433344434423440
:100CF00041342C34383438342C34363438343734A6
:100D00004134373434340D340A34003441345434EB
:100D10002B34423449344E3444343D34393438343D
:100D2000443433342C34423431342C344634443457
:100D300034343334453439340D340A3400344134D6
:100D400054342B344C3449344E344B343D343934E0
:100D50003834443433342C34423431342C34463433
:100D6000443434343334453439340D340A340034A3
:100D7000413454342B34423449344E3444343D34B9
:100D800030343034313433342C34453446342C341C
:100D90003034303431343434423442340D340A3453
:100DA0000034413454342B344C3449344E344B34B5
:100DB0003D3430343034313433342C3445344634DB
:100DC0002C343034303431343434423442340D3401
:100DD0000A340034413454342B344E3441344D34CD
:100DE00045343D34223445347334633472346134D1
:100DF00076346F3422340D340A34003441345434A0
:100E00002B3455344134523454343D34393436342F
:100E1000303430342C3430342C3430340D340A3403
:100E200000342034203420342034543452344F34AD
:100E3000433441344E3444344F342034203420344D
:100E400020340034203420342034203444344534D9
:100E500020344434413444344F3453342034203427
:100E600020342034003420342034203449344E34AB
:100E700046344F3452344D344134433441344F348A
:100E80002034203420340034443445345334433443
:100E90004F344E3445344334543441344E34443466
:100EA0004F34203420342034003420345034413442
:100EB0005234453441345234203443344F344D3469
:100EC00020344934503420342034003450344134F8
:100ED00052344534413452342034203420342034C8
:100EE0002034203442345434203420340034443408
:100EF0004534533443344F344E34453443345434FE
:100F000041345234203442345434203420340034B8
:100F1000203443344F344E344634493452344D3403
:100F200041342034543452344F3443344134203427
:100F300000343134203432342034333420343434E7
:100F400020342034353420343634203437342034BF
:100F50003834003442344C345534453454344F34EE
:100F60004F345434483420343C342D342D342D3413
:100F70002D343E3400344D344F34443455344C34E5
:100F80004F342034203444344534533445344A34C7
:100F9000413444344F3400344534533454344534AC
:100FA0004934523441342034203420342034203425
:100FB000203443344C3450340034413454342B34D2
:100FC00050345334573444343D342234303439347B
:100FD0003134303422340D340A3400342034203497
:100FE0002034203420342034203420342034203461
:100FF0002034203420342034203420340034203471
:1010000020342034203420342034413452345234BB
:101010004934203420342034203420342034003427
:10102000203420342034203420344534473455349F
:1010300041344134413420342034203420342034AD
:101040000034453452344934433420345334413429
:101050004E3454344F34533420342034203420342C
:10106000203400344734553449342E34203452343B
:10107000493442344534493452344F3420342034D6
:10108000203420340034473441344234523449341B
:1010900045344C342034473445344E3455342034B0
:1010A00020342034203400342034203420342034C0
:1010B0005434653463346E346F346C346F34673455
:1010C00020342034203420340034203420342034A0
:1010D0002D342D342D342D342D342D342D342D3408
:1010E0002D342D342034203420340034573441340E
:1010F0004C344C3441344334453420345034493436
:1011000052344534533420342034203400344C34A9
:1011100049344E3443344F344E3420344E344F34FB
:10112000563441344934533420342034203400348C
:1011300020342034203450346134723465346134C6
:101140006D3465346E3474346F342034203420347C
:10115000003420342034203443346F346E34663409
:101160006934673475347234613472342034203415
:10117000203400344D3441345434453455345334E0
:101180002034503449344E34483445344934523490
:101190004F3420340034203445346E34763469348E
:1011A0006F3420346434653420344434613464341E
:1011B0006F3473342034003421342A342D342A34EB
:1011C000203445344734553441344134413420349B
:1011D0002A342D342A342134003431343334203449
:1011E000203420344534473455344134413441347B
:1011F0002034203420343534303400343534303425
:101200002034203420342034413452345234493490
:1012100020342034203420343134333400343A3410
:10122000333420342A342D342A3441345234523465
:1012300049342A342D342A34203458344434003488
:101240005834443420342A342D342A34413452342E
:10125000523449342A342D342A3420345834443416
:1012600000345F345F342034203420342034203480
:1012700020342034203420342034203420345F348F
:101280005F340034413454342B3449344E345134B7
:101290004D343D3430342C3435342C3435340D3425
:1012A0000A3400344634723461346D3469346E3437
:1012B000673420344534723472346F3472340034FD
:1012C0004F34763465347234723475346E3420346D
:1012D0004534723472346F347234003420345034F4
:1012E0002F342034453473347434653469347234A3
:1012F000613420340034413454342B3443344D347D
:101300004F34443445343D3430340D340A340034E1
:10131000413454342B3452344F344C3445343D34FE
:1013200030340D340A340034413454342B345234C4
:101330004F344C3445343D3431340D340A340034A8
:10134000203445346E347634693461346E34643418
:101350006F3420340034413454342B3452344D34FF
:101360004134413444340D340A340034413454346B
:101370002B3449344E34493454340D340A34003457
:10138000203450342F34203443344C3450342034FF
:101390000034413454342B3449344E3451340D34F8
:1013A0000A340034453453345434453449345234C7
:1013B0004134003450344134523445344134523491
:1013C00000342E3420342034003420342E342034A1
:1013D00000342E342E3420340034203420342E3483
:1013E00000342E342E342E34003431340034323470
:1013F0000034343400343534003436340034373477
:10140000003442340034653400346C3400347534B4
:10141000003483120313AF002B08AE002E08A70080
:101420002F080A168A1165200A128A1583120313DF
:101430002D08FF002C0884000A168A1100200A12C9
:101440008A15003A03190800831203132D08FF00C0
:101450002C0884000A168A1100200A128A150A161E
:101460008A11C1220A128A15013083120313AC07B4
:101470000318AD0A162A83120313AB01AB0AFB3023
:10148000AC008930AD0009300A128A1509220A120F
:101490008A1583120313AB01AB0AFF30AC0089300D
:1014A000AD000D300A128A1509220A128A150A1691
:1014B0008A15F9270A128A15831203132308B0002C
:1014C0002408B1000230A5000030A6000A168A11D7
:1014D00016200A128A15831203132408A800230871
:1014E000A7000A168A1156250A128A1583120313B9
:1014F0003108803AB2002608803A3202031D822A5F
:10150000250830020318912A83120313AB01AB0A9A
:10151000FD30AC008730AD000B300A128A1509226D
:10152000080083120313AB01AB0AFD30AC00893015
:10153000AD000B300A128A1509220800831203132A
:10154000AB01AB0AFD30AC008930AD000B300A12A4
:101550008A1509220A128A1583120313AB01AB0AFA
:10156000A830AC008730AD000F300A128A1509226E
:101570000A128A150A168A15F9270A128A15831281
:1015800003132308B0002408B1000230A500003086
:10159000A6000A168A1116200A128A15831203134E
:1015A0002408A8002308A7000A168A1156250A1243
:1015B0008A15831203133108803AB2002608803A54
:1015C0003202031DE52A250830020318F42A83128B
:1015D0000313AB01AB0AFD30AC008730AD000D301A
:1015E0000A128A150922080083120313AB01AB0A01
:1015F000FF30AC008930AD000D300A128A15092287
:101600000800003083120313B4000030B30025300B
:10161000B2008030B1000A168A11FB240A128A1522
:10162000FE3083120313A4008630A5000A168A1127
:1016300040220A128A15943083120313A4008930C1
:10164000A5000A168A1140220A128A150330831255
:101650000313BD008A30BC005530BB00BB0B2E2BE2
:10166000BC0B2E2BBD0B2E2B7B3083120313A4003F
:101670008930A5000A168A1140220A128A15033001
:1016800083120313BD008A30BC005530BB00BB0B76
:10169000472BBC0B472BBD0B472B42308312031348
:1016A000A4008930A5000A168A1140220A128A1560
:1016B000033083120313BD008A30BC005530BB00D9
:1016C000BB0B602BBC0B602BBD0B602BB6308312A9
:1016D0000313A4008930A5000A168A1140220A12B9
:1016E0008A15033083120313BD008A30BC005530C5
:1016F000BB00BB0B792BBC0B792BBD0B792BC930F5
:1017000083120313A4008930A5000A168A1140220F
:101710000A128A15033083120313BD008A30BC00FD
:101720005530BB00BB0B922BBC0B922BBD0B922BED
:10173000DD3083120313A4008730A5000A168A1136
:101740004022080001300A168A11A1240A128A15C3
:1017500083120313AB013130AC008930AD0000308F
:101760000A128A1509220A128A15063083120313F7
:10177000B2001330B100AD30B000B00BBD2BB10BD7
:10178000BD2BB20BBD2B83120313AB010130AC0098
:101790008A30AD0006300A128A1509220A128A150B
:1017A000103083120313B2003930B1000D30B00095
:1017B000B00BD82BB10BD82BB20BD82B8312031341
:1017C000AB010530AC008A30AD0007300A128A1533
:1017D00009220A128A15103083120313B20039301D
:1017E000B1000D30B000B00BF32BB10BF32BB20BEB
:1017F000F32B83120313AB010730AC008A30AD002A
:1018000008300A128A1509220A128A15103083122A
:101810000313B2003930B1000D30B000B00B0E2C04
:10182000B10B0E2CB20B0E2C83120313AB01033041
:10183000AC008A30AD0009300A128A1509220A125A
:101840008A15103083120313B2003930B1000D3005
:10185000B000B00B292CB10B292CB20B292C831210
:101860000313AB01AB0A5430AC008830AD0000303C
:101870000A128A1509220A128A15403083120313AC
:10188000B2006A30B1009730B000B00B452CB10BFC
:10189000452CB20B452C0800003083120313B40012
:1018A0000030B3002530B2008030B1000A168A1132
:1018B000FB240A128A15FE3083120313A40086301B
:1018C000A5000A168A1140220A128A15AB3083122B
:1018D0000313A4008930A5000A168A1140220A12B7
:1018E0008A15033083120313BD008A30BC005530C3
:1018F000BB00BB0B792CBC0B792CBD0B792C883031
:1019000083120313A4008930A5000A168A1140220D
:101910000A128A15033083120313BD008A30BC00FB
:101920005530BB00BB0B922CBC0B922CBD0B922CE8
:101930007B3083120313A4008930A5000A168A1194
:1019400040220A128A15033083120313BD008A3025
:10195000BC005530BB00BB0BAB2CBC0BAB2CBD0B88
:10196000AB2C423083120313A4008930A5000A1661
:101970008A1140220A128A15033083120313BD0014
:101980008A30BC005530BB00BB0BC42CBC0BC42C34
:10199000BD0BC42CB63083120313A4008930A500FC
:1019A0000A168A1140220A128A1503308312031381
:1019B000BD008A30BC005530BB00BB0BDD2CBC0B1E
:1019C000DD2CBD0BDD2CEA3083120313A40086301E
:1019D000A5000A168A1140220A128A1503308312C2
:1019E0000313BD008A30BC005530BB00BB0BF62C86
:1019F000BC0BF62CBD0BF62CDD3083120313A400B8
:101A00008730A5000A168A114022080083120313AA
:101A1000AB01E130AC008930AD0009300A128A1503
:101A200009220A128A150D3083120313B200AF3057
:101A3000B100B530B000B00B1B2DB10B1B2DB20B9C
:101A40001B2D222D83120313AB01E530AC0089302E
:101A5000AD0009300A128A1509220A128A150D30C2
:101A600083120313B200AF30B100B530B000B00B39
:101A7000372DB10B372DB20B372D3E2D83120313AB
:101A8000AB01ED30AC008930AD0009300A128A1587
:101A900009220A128A150D3083120313B200AF30E7
:101AA000B100B530B000B00B532DB10B532DB20BBC
:101AB000532D5A2D83120313AB01E130AC00893052
:101AC000AD0009300A128A1509220A128A150D3052
:101AD00083120313B200AF30B100B530B000B00BC9
:101AE0006F2DB10B6F2DB20B6F2D762D831203135B
:101AF000AB01E530AC008930AD0009300A128A151F
:101B000009220A128A150D3083120313B200AF3076
:101B1000B100B530B000B00B8B2DB10B8B2DB20BDB
:101B20008B2D922D83120313AB01ED30AC00893065
:101B3000AD0009300A128A1509220A128A150D30E1
:101B400083120313B200AF30B100B530B000B00B58
:101B5000A72DB10BA72DB20BA72DAE2D831203130A
:101B6000AB01E130AC008930AD0009300A128A15B2
:101B700009220A128A150D3083120313B200AF3006
:101B8000B100B530B000B00BC32DB10BC32DB20BFB
:101B9000C32DCA2D83120313AB01E930AC00893089
:101BA000AD0009300A128A1509220A128A150D3071
:101BB00083120313B200AF30B100B530B000B00BE8
:101BC000DF2DB10BDF2DB20BDF2DE62D83120313BA
:101BD000AB01F130AC008930AD0009300A128A1532
:101BE00009220A128A15123083120313B200C2307E
:101BF000B1006530B000B00BFB2DB10BFB2DB20B6B
:101C0000FB2D022E080001300A168A11A1240A12A7
:101C10008A1583120313AB017630AC008830AD0017
:101C200000300A128A1509220A128A151A30831204
:101C30000313B2005E30B1006D30B000B00B1E2E49
:101C4000B10B1E2EB20B1E2E252E83120313AB01D9
:101C5000AB0ABA30AC008830AD0000300A128A15E9
:101C600009220A128A151A3083120313B2005E3059
:101C7000B1006D30B000B00B3B2EB10B3B2EB20B60
:101C80003B2E422E83120313AB01EE30AC008730A3
:101C9000AD0000300A128A1509220A128A15831231
:101CA0000313AB013230AC008830AD0000300A12B3
:101CB0008A1509220A128A151A3083120313B200F8
:101CC0005E30B1006D30B000B00B642EB10B642EED
:101CD000B20B642E6B2E83120313AB01AB0AEE30F2
:101CE000AC008730AD0000300A128A1509220A12B2
:101CF0008A1583120313AB01AB0A4330AC00883062
:101D0000AD0000300A128A1509220A128A151A300B
:101D100083120313B2005E30B1006D30B000B00B1F
:101D20008F2EB10B8F2EB20B8F2E962E8312031394
:101D3000AB01EE30AC008730AD0000300A128A15DE
:101D400009220A128A1583120313AB012130AC0059
:101D50008830AD0000300A128A1509220A128A154D
:101D60001A3083120313B2005E30B1006D30B00040
:101D7000B00BB82EB10BB82EB20BB82EBF2E8312FB
:101D80000313AB01AB0AEE30AC008730AD0000307E
:101D90000A128A1509220A128A1583120313AB014B
:101DA000AB0A8730AC008830AD0000300A128A15CB
:101DB00009220A128A151A3083120313B2005E3008
:101DC000B1006D30B000B00BE32EB10BE32EB20BBF
:101DD000E32EEA2E83120313AB01EE30AC00873002
:101DE000AD0000300A128A1509220A128A1508303D
:101DF00083120313B2009D30B1000530B000B00B68
:101E0000FF2EB10BFF2EB20BFF2E01300A168A11E6
:101E1000A1240A128A15063083120313B20013306C
:101E2000B100AD30B000B00B132FB10B132FB20BBC
:101E3000132F83120313AB01FF30AC008730AD00CA
:101E400000300A128A1509220A128A150D308312EF
:101E50000313B200AF30B100B530B000B00B2E2F7D
:101E6000B10B2E2FB20B2E2F352F83120313AB0184
:101E7000AB0A1030AC008830AD0000300A128A1571
:101E800009220A128A15403083120313B2006A3005
:101E9000B1009730B000B00B4B2FB10B4B2FB20BF2
:101EA0004B2F01300A168A11A1240A128A15063016
:101EB00083120313B2001330B100AD30B000B00B89
:101EC0005F2FB10B5F2FB20B5F2F83120313AB0198
:101ED0002030AC008930AD0000300A128A1509228A
:101EE0000A128A1583120313AB01AB0ADC30AC0073
:101EF0008830AD0000300A128A1509220A128A15AC
:101F00001A3083120313B2005E30B1006D30B0009E
:101F1000B00B882FB10B882FB20B882F8F2F831215
:101F20000313AB01FE30AC008830AD0000300A1264
:101F30008A1509220A128A1583120313AB01AB0A10
:101F4000ED30AC008830AD0000300A128A1509224D
:101F50000A128A15123083120313B200C230B10084
:101F60006530B000B00BB22FB10BB22FB20BB22F55
:101F7000B92F83120313AB010F30AC008930AD00D1
:101F800000300A128A1509220A128A1583120313D5
:101F9000AB01AB0ADC30AC008830AD0000300A1277
:101FA0008A1509220A128A151A3083120313B20005
:101FB0005E30B1006D30B000B00BDC2FB10BDC2F08
:101FC000B20BDC2FE32F01300A168A11A1240A126A
:101FD0008A15063083120313B2001330B100AD30FE
:101FE000B000B00BF12FB10BF12FB20BF12F0A168D
:101FF0008A11C9200A128A150A168A11E3200800DC
:10200000FF1B0A2883137F1883170008840A03190B
:10201000FF0A08007F087F398A000408840A031930
:04202000FF0A820031
:10202C00831203134B08A4004A08A30008006400A1
:10203C008001840A04060319003404061E28831642
:10204C000313071487140715831203130710871043
:10205C000711080083120313181D362801300800DD
:10206C00981C3A2802300800003008008312031331
:10207C00181D422898134A28981C462818124A28DA
:10208C001A080A168A114F2183120313981718166F
:10209C000800831203138601F030A600260897056A
:1020AC0083160317890102308316031386008312EB
:1020BC000313061600300A168A117D2008008312BD
:1020CC000313AA003F302A05A8002708A9000530F1
:1020DC000310A90DFF3E031D6E280310290DFF3AB6
:1020EC00013E280780380A168A11A12408008312A1
:1020FC000313A4008030A3002308A5008611250833
:10210C000319942806112408250503198F28061491
:10211C00902806100310A50C0615852886150800B6
:10212C00803083120313A3002308A500A401861199
:10213C00861525080319AD280611861CA928250823
:10214C00A3002308A4040310A50C06159F2824083B
:10215C0008000A168A15DB270A168A118312031344
:10216C00A3002308A5002508031DC2284F03031D47
:10217C00C228A401A40AC328A4012508A30023088B
:10218C00CF00240808000A168A15EB270A168A11B4
:10219C0083120313A4002408A6002608031DDC28C0
:1021AC004E03031DDC28A501A50ADD28A501260880
:1021BC00A4002408CE00250808000A168A15E0277A
:1021CC000A168A1183120313A3002308A5002508FD
:1021DC00031DF6284D03031DF628A401A40AF728B5
:1021EC00A4012508A3002308CD00240808006430AE
:1021FC008312031381000130C8070318C90A003089
:10220C00C9074908803AF0004B08803A7002031D58
:10221C0011294A084802031C080083120313C80141
:10222C00C90108008B138316031788018316031347
:10223C0005168112811101158110011001166430EF
:10224C00831203138100BC30A3000230A4000A16D1
:10225C008A15F2278B168B1708001E308312031376
:10226C00A3000030A4004C08AA00AB01AA09AB09DA
:10227C00AA0A0319AB0A7C082A07A5002B08031825
:10228C002B0AA6000A168A11AA2383120313230809
:10229C000800FB007B08F7007C08A03E8400770850
:1022AC00831380001E30F0000030F1000130F70085
:1022BC007708FC077C08F800F9017808F200790827
:1022CC00F3000A168A115F237008FA007A08FC00E2
:1022DC00080001300A168A11A1240A168A118312E9
:1022EC000313AB01CB30AC008830AD0000300A12C8
:1022FC008A1509220A168A1183120313AB01AB0A41
:10230C006530AC008830AD0000300A128A15092205
:10231C00080001300A168A11A1240A168A118312A8
:10232C000313AB019830AC008830AD0000300A12BA
:10233C008A1509220A168A1183120313AB01AB0A00
:10234C006530AC008830AD0000300A128A150922C5
:10235C00080001300A168A11A1240A168A11831268
:10236C000313AB01A930AC008830AD0000300A1269
:10237C008A1509220A168A1183120313AB01AB0AC0
:10238C006530AC008830AD0000300A128A15092285
:10239C0008008B13831603138C1EDD298312031381
:1023AC008C1EDD290A168A113C200A168A118B1AFA
:1023BC000B1DE6290B110A168A11FD200A168A112B
:1023CC008B178312031322088A0021088400200E25
:1023DC008300FE0E7E0E090083120313A500250850
:1023EC00A4002408A7002308A4002408A600413058
:1023FC002702031C032A3730042A3030A70241304D
:10240C002602031C0B2A37300C2A3030A602A70EEA
:10241C00F030A70527082604A4002408D40054088B
:10242C00080083120313AE014C087C0603193E2AE4
:10243C004C08A03E840083130008AA002A08AE00B2
:10244C001E30A3000030A4000130AA002A08CC07DB
:10245C004C08AB00AC012B08A5002C08A6000A16F2
:10246C008A11AA23831203132308AD002D08CC0074
:10247C002E080800831203132508FF00240884008B
:10248C000A168A1100200A168A11003A031908004C
:10249C0083160313981C4E2A831203132508FF007E
:1024AC00240884000A168A1100200A168A110A16BA
:1024BC008A15E5270A168A11013083120313A40723
:1024CC000318A50A402A83120313181D7F2A981398
:1024DC00033083120313A5008A30A4005530A300E7
:1024EC00A30B762AA40B762AA50B762A8312031348
:1024FC009817981C08001812033083120313A500B8
:10250C008A30A4005530A300A30B8A2AA40B8A2A74
:10251C00A50B8A2A831203131816080083120313BF
:10252C00A40024080F39A3002308A5002408F039BF
:10253C00A3002308A600A60E0F30A6050A3025021C
:10254C00031CAA2A3730AB2A3030A3002308A50776
:10255C000A302602031CB42A3730B52A3030A300C7
:10256C002308A6072608A3002308D2002508A300E9
:10257C002308D300080083120313A4002408A3002B
:10258C002308A5000816250E0F39A30008082306FA
:10259C00F039230688008812413083120313A300FC
:1025AC00A30BD62AD92A83120313881608162508DA
:1025BC000F39A30008082306F03923068800881277
:1025CC00413083120313A300A30BEA2AED2A8312D2
:1025DC00031388160800F0308312031388050812C1
:1025EC008816831603138801033083120313A90082
:1025FC008A30A8005530A700A70B022BA80B022B82
:10260C00A90B022B20300A168A11A1240A168A1152
:10261C0028300A168A11A1240A168A110C300A16BF
:10262C008A11A1240A168A1101300A168A11A124D2
:10263C000A168A1102300A168A11A12408000A16F9
:10264C008A1196200A168A1183120313A7002708F1
:10265C00D000413083120313A800ED30A700A70B64
:10266C00352BA80B352B3A2B83120313500851062C
:10267C00031908000A168A1196200A168A110A16DE
:10268C008A1194220A168A118312031352080A160D
:10269C008A15E5270A168A118312031353080A16A2
:1026AC008A15E527831203135008A7002708D100C9
:1026BC000800F601F31F692BF209F309F20A03195A
:1026CC00F30AF601F60AF11F702BF009F109F00A72
:1026DC000319F10A7008710403199D2BF501F50A11
:1026EC00F11B842B01300310F00DF10DFF3E031D87
:1026FC00792B0130F4007408F507762B71087302FE
:10270C00031D8A2B70087202031C922B7008F202B4
:10271C007108031CF303F30201300310F10CF00CED
:10272C00FF3E031D932B0130F502031D842B76080D
:10273C000319A52BF209F309F20A0319F30A73081A
:10274C00F1007208F000080083120313A901A61F00
:10275C00B62BA509A609A50A0319A60AA901A90A57
:10276C00A41FBD2BA309A409A30A0319A40A2308B7
:10277C0024040319EA2BA801A80AA41BD12B0130AD
:10278C000310A30DA40DFF3E031DC62B0130A700A3
:10279C002708A807C32B24082602031DD72B2308C0
:1027AC002502031CDF2B2308A5022408031CA60307
:1027BC00A60201300310A40CA30CFF3E031DE02B5A
:1027CC000130A802031DD12B29080319F22BA509EE
:1027DC00A609A50A0319A60A2608A4002508A30021
:1027EC00080083120313AB01AB0AD230AC00893062
:1027FC00AD0000300A128A1509220A168A110A162F
:10280C008A15F9270A168A11831203132308B000BC
:10281C002408B1000230A5000030A6000A168A1167
:10282C0016200A168A11831203132408A800230801
:10283C00A7000A168A1156250A168A118312031349
:10284C003108803AB2002608803A3202031D302C3F
:10285C002508300203183F2C83120313AB01AB0A7B
:10286C00FB30AC008730AD000D300A128A150922FE
:10287C00080083120313AB01AB0AD930AC008730CC
:10288C00AD000D300A128A150922080083120313B9
:10289C00AB01AB0AD930AC008730AD000D300A1259
:1028AC008A1509220A168A110A168A15F9270A1698
:1028BC008A11831203132308B0002408B1000230DC
:1028CC00A5000030A6000A168A1116200A168A11D5
:1028DC00831203132408A8002308A7000A168A11E0
:1028EC0056250A168A11831203133108803AB20056
:1028FC002608803A3202031D852C25083002031865
:10290C00942C83120313AB01AB0AF730AC00873065
:10291C00AD0000300A128A15092208008312031335
:10292C00AB01AB0AD230AC008930AD0000300A12DA
:10293C008A150922080083120313A5002508A30099
:10294C002308A6000812260E0F39A3000808230638
:10295C00F03923068800881225030319B92C02309C
:10296C002506031DC52C213083120313A4007530DA
:10297C00A300A30BBF2CA40BBF2CC42CCC2C41301C
:10298C0083120313A300A30BC92CCC2C83120313A7
:10299C0088162030250603190800081226080F395E
:1029AC00A30008082306F0392306880088122503A3
:1029BC000319E42C02302506031DF02C2130831260
:1029CC000313A4007530A300A30BEA2CA40BEA2C70
:1029DC00EF2CF72C413083120313A300A30BF42C20
:1029EC00F72C831203138816080083120313310883
:1029FC00B5003208B6003308B7003408B80002300E
:102A0C000310B50DB60DB70DB80DFF3E031D062D09
:102A1C003808A6003708A5003608A4003508A3001E
:102A2C000130AA003130A9002D30A8000030A700D9
:102A3C000A168A11B1250A168A1183120313230868
:102A4C00FF3EB90024080318013EFF3EBA003908C6
:102A5C00831603139900831203133A088316031386
:102A6C009A0018128316031787158316031318156B
:102A7C0083120313981783160313981683120313E8
:102A8C001816831603131813181083120313181334
:102A9C0018108316031314168C160B178B170800BB
:102AAC0083120313AB01A61F622DA509A609A50A63
:102ABC000319A60AAB01AB0AA81F6D2DA709A8091B
:102ACC00A70A0319A80A0130A9002908AB06AC0112
:102ADC00AD01250826040319A42DAA01AA0AA61BD8
:102AEC00832D01300310A50DA60DFF3E031D782D7F
:102AFC000130A9002908AA07752D01300310AC0D6F
:102B0C00AD0DFF3E031D842D26082802031D902DBC
:102B1C0025082702031C992D2508A7022608031C4B
:102B2C00A803A8022C1401300310A60CA50CFF3E20
:102B3C00031D9A2D0130AA02031D832D2B080319A6
:102B4C00AC2DAC09AD09AC0A0319AD0A2D08A600D1
:102B5C002C08A5000800003083120313AF000030CE
:102B6C00AE000030AD000030AC0026082504240473
:102B7C0023040319082EB001B00AA61BD32D013073
:102B8C00AB000310A30DA40DA50DA60DAB0BC72D0B
:102B9C000130AB002B08B007C32D0130AB00031084
:102BAC00AC0DAD0DAE0DAF0DAB0BD52D26082A021D
:102BBC00031DEA2D25082902031DEA2D24082802ED
:102BCC00031DEA2D23082702031CFB2D2308A70253
:102BDC002408031C240FA8022508031C250FA90296
:102BEC002608031C260FAA022C1401300310A60C75
:102BFC00A50CA40CA30CFF3E031DFC2D0130B00250
:102C0C00031DD32D2F08A6002E08A5002D08A40007
:102C1C002C08A300080083120313AB01AB0AA830E5
:102C2C00AC008730AD000F300A128A1509220A1643
:102C3C008A1183120313AB01AB0AF730AC00893055
:102C4C00AD0002300A128A1509220A168A110A16D8
:102C5C008A15F9270A168A11831203132308B00068
:102C6C002408B1000230A5000030A6000A168A1113
:102C7C0016200A168A11831203132408A8002308AD
:102C8C00A7000A168A1156250A168A1183120313F5
:102C9C003108803AB2002608803A3202031D582EC1
:102CAC00250830020318672E83120313AB01AB0AFD
:102CBC00FD30AC008730AD0000300A128A150922B5
:102CCC00080083120313AB01AB0AF530AC0089305A
:102CDC00AD0000300A128A15092208008312031372
:102CEC00AB01AB0AF530AC008930AD0000300A12F4
:102CFC008A1509220A168A1183120313AB01AB0A37
:102D0C000D30AC008930AD0004300A128A1509224E
:102D1C000A168A110A168A15F9270A168A118312BD
:102D2C0003132308B0002408B1000230A5000030C2
:102D3C00A6000A168A1116200A168A11831203138A
:102D4C002408A8002308A7000A168A1156250A167B
:102D5C008A11831203133108803AB2002608803A94
:102D6C003202031DBB2E250830020318CA2E831213
:102D7C000313AB01AB0AFD30AC008730AD00023061
:102D8C000A128A150922080083120313AB01AB0A3D
:102D9C00F730AC008930AD0002300A128A150922D6
:102DAC00080083120313AB01AB0AF730AC00893077
:102DBC00AD0002300A128A1509220A168A118312F2
:102DCC000313AB01AB0AF930AC008930AD0006300F
:102DDC000A128A1509220A168A110A168A15F92767
:102DEC000A168A11831203132308B0002408B100B9
:102DFC000230A5000030A6000A168A1116200A1609
:102E0C008A11831203132408A8002308A7000A16AA
:102E1C008A1156250A168A11831203133108803A37
:102E2C00B2002608803A3202031D1E2F25083002FC
:102E3C0003182D2F83120313AB01AB0AFD30AC002A
:102E4C008730AD0004300A128A150922080083125B
:102E5C000313AB01AB0A0D30AC008930AD0004306C
:102E6C000A128A150922080083120313AB01AB0A5C
:102E7C000D30AC008930AD0004300A128A150922DD
:102E8C000A168A1183120313AB01AB0AFB30AC0098
:102E9C008930AD0009300A128A1509220A168A11E6
:102EAC000A168A15F9270A168A11831203132308A6
:102EBC00B0002408B1000230A5000030A6000A16AC
:102ECC008A1116200A168A11831203132408A800EB
:102EDC002308A7000A168A1156250A168A1183128E
:102EEC0003133108803AB2002608803A3202031DDF
:102EFC00812F250830020318902F83120313AB0186
:102F0C00AB0AFD30AC008730AD0006300A128A15D2
:102F1C000922080083120313AB01AB0AF930AC0091
:102F2C008930AD0006300A128A1509220800831276
:102F3C000313AB01AB0AF930AC008930AD0006309D
:102F4C000A128A1509220A168A1183120313AB017D
:102F5C00AB0AFD30AC008930AD000B300A128A157B
:102F6C0009220A168A110A168A15F9270A168A11D5
:102F7C00831203132308B0002408B1000230A5000B
:102F8C000030A6000A168A1116200A168A1183121E
:102F9C0003132408A8002308A7000A168A11562533
:102FAC000A168A11831203133108803AB2002608DC
:102FBC00803A3202031DE42F250830020318F32F48
:102FCC0083120313AB01AB0AFD30AC008730AD00AC
:102FDC0009300A128A150922080083120313AB0167
:102FEC00AB0AFB30AC008930AD0009300A128A15EF
:042FFC00092208009E
:103FB60083120313070C0139080083120313070841
:103FC6000139080083120313A3002308990008008F
:103FD60083120313070CA300230C01390800831274
:103FE60003132408CB002308CA0008008312031316
:0A3FF6004908A4004808A3000800D1
:04400E00E2EFFFFFDF
:00000001FF
