:060000000A128A11122809
:10000800FE00030E83120313A0000408A1000A08CF
:10001800A2007F08A3000A168A1113290A128A115E
:100028001528FC0183134930840056300A168A15B6
:100038004D270A128A11A0308400BE300A168A158C
:100048004D2783010A128A1129280A168A1555276D
:100058000A128A110A168A116D220A128A110A16C0
:100068008A115C200A128A11003083120313B5002A
:100078000030B4002530B3008030B2000A168A116F
:100088003D240A128A110A168A1586270A128A112D
:1000980083120313C701C801C601C501572D0A12EF
:1000A8008A15A2230A128A11C5290A168A11F32071
:1000B8000A128A110A30482D0A168A11B3200A1228
:1000C8008A111430482D0A168A11D3200A128A116F
:1000D8001E30482D0A168A15E6270A128A11003A98
:1000E80003197C28023083120313C7000030C800AC
:1000F8000A168A110D200A128A11003A03198A2851
:10010800033083120313C7000030C8000A168A118F
:1001180027200A128A11003A0319572D6430482DF6
:100128000A168A15E6270A128A11003A0319A22824
:10013800033083120313C7000030C8000A168A115F
:100148000D200A128A11003A0319B02801308312CF
:100158000313C7000030C8000A168A1127200A12A4
:100168008A11003A0319572DC830482D0A168A15E6
:10017800E6270A128A11003A0319C82801308312A7
:100188000313C7000030C8000A168A110D200A128E
:100198008A11003A0319D628023083120313C700C4
:1001A8000030C8000A168A1127200A128A11003A5C
:1001B8000319E4282C3083120313C7000130C80048
:1001C8000A168A152D270A128A1183120313BF00F3
:1001D8000A168A1538270A128A11831203133F0553
:1001E8000319572D9A30C70002304C2D01300A16DA
:1001F8008A11E3230A128A1183120313AC01BB305C
:10020800AD008730AE0000300A168A113B220A1270
:100218008A1183120313AC01AC0ACC30AD008730CD
:10022800AE0000300A168A113B220A128A116E307B
:10023800482D0A168A118E230A128A110A168A1163
:100248000D200A128A11003A03192E29831203136A
:10025800C501C50A0A168A1127200A128A11003A0E
:10026800031956296F3051290A168A1139230A129F
:100278008A110A168A15E6270A128A11003A031902
:10028800482983120313C5010A168A1127200A1266
:100298008A11003A03195629703083120313C700D4
:1002A8000030C8000A168A1538270A128A118312E4
:1002B8000313BF000A168A1528270A128A11831207
:1002C80003133F050319572D0A304A2D4508003AF4
:1002D80003191D29013A03193829572D572D0130C3
:1002E8000A168A11E3230A128A1183120313AC0136
:1002F800A030AD008930AE0000300A168A113B22CA
:100308000A128A1183120313AC01AC0A6E30AD00D5
:100318008930AE0000300A168A113B220A128A116F
:100328000A128A154C240A128A11C02901300A16A9
:100338008A11E3230A128A1183120313AC01A03035
:10034800AD008930AE0000300A168A113B220A122D
:100358008A1183120313AC01AC0ACA30AD0089308C
:10036800AE0000300A168A113B220A128A110A12BC
:100378008A1501230A128A110A128A1506250A12F9
:100388008A110130482D01300A168A11E3230A1216
:100398008A1183120313AC018830AD008730AE0098
:1003A80000300A168A113B220A128A11831203139B
:1003B800AC01AC0A2230AD008730AE0000300A161E
:1003C8008A113B220A128A11D230482D0A168A1540
:1003D80038270A128A1183120313BF000A168A15D6
:1003E80028270A128A11831203133F050319002ACA
:1003F8001430C7000030C8000A168A1127200A12D4
:100408008A11003A0319572D01300A168A11E3237D
:100418000A128A1183120313AC011130AD00873020
:10042800AE0000300A168A113B220A128A11831282
:100438000313AC01AC0A3330AD008730AE00003096
:100448000A168A113B220A128A1183120313C40165
:10045800C40A0612B52A83120313AC01AC0A603031
:10046800AD008930AE0000300A168A113B220A120C
:100478008A110A168A11B3210A128A11962A83123E
:100488000313AC01AC0A5230AD008930AE00003025
:100498000A168A113B220A128A110A168A11B321F6
:1004A8000A128A11962A0A168A1177200A128A11C4
:1004B80083120313BF0002303F02031C962A0A1658
:1004C8008A118A210A128A1183120313BF003F0876
:1004D800C2000A168A118A210A128A11831203138A
:1004E800BF003F08C3004308BF003F08A4004208FC
:1004F8000A128A1516220A128A110A168A15B427B0
:100508000A128A11962A0A168A1101200A128A11D9
:10051800003A0319572A013A0319432A033A0319DF
:100528002F2A572A8312031355080A168A15B42747
:100538000A128A110A128A11BF250A128A110A168A
:100548008A1538270A128A1183120313BF000A1664
:100558008A1528270A128A11831203133F05031DDF
:10056800C4014408031D872A061602304A2D0130AB
:100578000A168A11E3230A128A1183120313AC01A3
:10058800AA30AD008730AE0000300A168A113B222F
:100598000A128A112D304A2BAC01AC0A6630AD0024
:1005A8008730AE0000300A168A113B220A128A11DF
:1005B8000A168A15E6270A128A11003A031DEC2A40
:1005C8000A168A110D200A128A11003A0319F22A12
:1005D8002E3083120313C7000130C8000A168A118F
:1005E80027200A128A11003A0319CE2C3130C92C5F
:1005F800AC01AC0A7730AD008730AE0000300A1687
:100608008A113B220A128A110A168A15E6270A124B
:100618008A11003A031D182B0A168A110D200A1296
:100628008A11003A03191E2B2D3083120313C700B9
:100638000130C8000A168A1127200A128A11003AC6
:100648000319CE2C3230C92C01300A168A11E32343
:100658000A128A1183120313AC015530AD0087309A
:10066800AE0000300A168A113B220A128A11831240
:100678000313AC01AC0A9930AD008730AE000030EE
:100688000A168A113B220A128A1136308312031382
:10069800C70001304C2D01300A168A11E3230A12D3
:1006A8008A1183120313AC014430AD008730AE00C9
:1006B80000300A168A113B220A128A110A168A1178
:1006C80061210A128A110A128A1506250A128A114C
:1006D8000D3083120313C100AF30C000B530BF0026
:1006E800BF0B742BC00B742BC10B742B7B2B472DAA
:1006F8000A168A11AE250A128A110A168A15E627E1
:100708000A128A11003A03198F2B07308312031338
:10071800BF003F08C6000A168A110D200A128A1166
:10072800003A03199B2B83120313C601C60A0A1643
:100738008A1127200A128A11003A0319CE2C373061
:10074800C92C0A168A1111260A128A110A168A1544
:10075800E6270A128A11003A0319B52B83120313EC
:10076800C6010A168A110D200A128A11003A0319C5
:10077800C32B023083120313BF003F08C6000A16BA
:100788008A1127200A128A11003A0319CE2C383010
:10079800C92C0A168A1174260A128A110A168A1591
:1007A800E6270A128A11003A0319DE2B8312031373
:1007B800C601C60A0A168A110D200A128A11003AC1
:1007C8000319EC2B033083120313BF003F08C60044
:1007D8000A168A1127200A128A11003A0319CE2C08
:1007E8003930C92C0A168A11D7260A128A110A1614
:1007F8008A15E6270A128A11003A0319092C0230D1
:1008080083120313BF003F08C6000A168A110D2081
:100818000A128A11003A0319172C043083120313A1
:10082800BF003F08C6000A168A1127200A128A113B
:10083800003A0319CE2C3A30C92C0A168A113A27E5
:100848000A128A110A168A15E6270A128A11003A2C
:100858000319342C033083120313BF003F08C6006A
:100868000A168A110D200A128A11003A0319422C1D
:10087800053083120313BF003F08C6000A168A1109
:1008880027200A128A11003A0319CE2C3B30C92CB2
:100898000A168A119D270A128A110A168A15E6274E
:1008A8000A128A11003A03195F2C043083120313C9
:1008B800BF003F08C6000A168A110D200A128A11C5
:1008C800003A03196D2C063083120313BF003F084A
:1008D800C6000A168A1127200A128A11003A03193B
:1008E800CE2C3C30C92C0A128A153B220A128A11D6
:1008F8000A168A15E6270A128A11003A03198A2C61
:10090800053083120313BF003F08C6000A168A1178
:100918000D200A128A11003A0319982C0730831205
:100928000313BF003F08C6000A168A1127200A12BF
:100938008A11003A0319CE2C3D30C92C0A128A15A7
:100948009E220A128A110A168A15E6270A128A11A5
:10095800003A0319B52C063083120313BF003F0871
:10096800C6000A168A110D200A128A11003A0319C4
:10097800C02C83120313C6010A168A1127200A12F3
:100988008A11003A0319CE2C3E3083120313C70094
:100998000130C8000A168A1538270A128A118312EC
:1009A8000313BF000A168A1528270A128A11831210
:1009B80003133F050319572D1E304A2D4608003AE8
:1009C80003197C2B013A0319A52B033A0319CD2BE4
:1009D800013A0319F62B073A0319212C013A031996
:1009E8004C2C033A0319772C013A0319A22C572DE2
:1009F800572D01300A168A11E3230A128A1183122D
:100A08000313AC01A030AD008930AE0000300A16E7
:100A18008A113B220A128A110A168A1198240A128C
:100A28008A11422D01300A168A11E3230A128A110B
:100A380083120313AC01A030AD008930AE00003042
:100A48000A168A113B220A128A110A168A11982458
:100A58000A128A11422D01300A168A11E3230A125A
:100A68008A1183120313AC01A030AD008930AE00A7
:100A780000300A168A113B220A128A110A128A15B4
:100A880006250A128A11033083120313C7000030A7
:100A9800C800572D0A128A1503260A128A118312D2
:100AA8000313C701C801831203134808003A031946
:100AB800642D013A03198D2D033A0319B92D572DC9
:100AC8004708003A03195328013A03195928033AE9
:100AD80003196028013A03196728093A03196E288F
:100AE8001E3A031994280A3A0319BA287A3A0319BC
:100AF800FA280A3A03196A29013A031973291F3A8D
:100B080003199A29B83A0319C7291A3A0319EA297D
:100B1800572D47082C3A0319BB2A013A0319D02A42
:100B2800033A0319FC2A1F3A0319282B033A03191D
:100B38004F2B043A0319E22C013A0319FD2C0F3A02
:100B48000319162D013A03192F2D033A03192F2DD6
:100B5800013A03192F2D073A03192F2D013A0319CA
:100B68002F2D033A03192F2D572D47089A3A0319A9
:100B78004E2D572D572D0A168A15CD270A128A1180
:100B880083120313A8002808D100413083120313ED
:100B9800A900ED30A800A80BCF2DA90BCF2DD42D7F
:100BA8008312031351085206031908000A168A15FE
:100BB800CD270A128A110A168A11DE210A128A1111
:100BC8008312031353080A168A1532270A128A1148
:100BD8008312031354080A168A1532278312031343
:100BE8005108A8002808D2000800831203134C08F3
:100BF800A5004B08A4000800413454342B34503469
:100C08004134493452343D34333444344234413429
:100C18002C34383438342C3436343834373441347E
:100C2800373434342C34323430340D340A3400340C
:100C3800413454342B3450344134493452343D34E3
:100C480039343834443433342C34423431342C3449
:100C58004634443434343334453439342C3432341F
:100C680030340D340A340034413454342B34503485
:100C78004134493452343D343034303431343334EF
:100C88002C34453446342C34303430343134343414
:100C9800423442342C34323430340D340A34003483
:100CA800413454342B34423449344E3444343D3482
:100CB80033344434423441342C34383438342C34CA
:100CC8003634383437344134373434340D340A3414
:100CD8000034413454342B344C3449344E344B347E
:100CE8003D3433344434423441342C343834383489
:100CF8002C343634383437344134373434340D34C2
:100D08000A340034413454342B34423449344E3498
:100D180044343D3439343834443433342C34423454
:100D280031342C344634443434343334453439344F
:100D38000D340A340034413454342B344C3449349F
:100D48004E344B343D3439343834443433342C3411
:100D5800423431342C344634443434343334453416
:100D680039340D340A340034413454342B34423489
:100D780049344E3444343D343034303431343334EF
:100D88002C34453446342C34303430343134343413
:100D9800423442340D340A340034413454342B3450
:100DA8004C3449344E344B343D343034303431349F
:100DB80033342C34453446342C34303430343134E4
:100DC8003434423442340D340A3400344134543417
:100DD8002B344E3441344D3445343D34223445347B
:100DE800733463347234613476346F3422340D349E
:100DF8000A340034413454342B3455344134523499
:100E080054343D3439343634303430342C3430347E
:100E18002C3430340D340A34003420342034203457
:100E28002034543452344F34433441344E344434EF
:100E38004F342034203420342034003420342034FB
:100E48002034203444344534203444344134443448
:100E58004F345334203420342034203400342034A8
:100E68002034203449344E3446344F3452344D34CF
:100E78004134433441344F34203420342034003456
:100E880044344534533443344F344E344534433476
:100E9800543441344E3444344F34203420342034D4
:100EA80000342034503441345234453441345234BF
:100EB800203443344F344D342034493450342034B2
:100EC800203400345034413452344534413452349F
:100ED8002034203420342034203420344234543414
:100EE80020342034003444344534533443344F34AC
:100EF8004E3445344334543441345234203442342B
:100F08005434203420340034203443344F344E34A5
:100F18004634493452344D344134203454345234F4
:100F28004F344334413420340034313420343234A3
:100F380020343334203434342034203435342034CD
:100F480036342034373420343834003442344C3486
:100F58005534453454344F344F34543448342034A1
:100F68003C342D342D342D342D343E3400344D345E
:100F78004F34443455344C344F34203420344434C2
:100F88004534533445344A34413444344F340034BE
:100F9800453453345434453449345234413420347C
:100FA8002034203420342034203443344C3450341A
:100FB8000034413454342B3450345334573444348B
:100FC8003D342234303439343134303422340D3421
:100FD8000A3400342034203420342034203420349F
:100FE8002034203420342034203420342034203459
:100FF8002034203400342034203420342034203469
:10100800203441345234523449342034203420348A
:101018002034203420340034203420342034203448
:101028002034453447345534413441344134203434
:1010380020342034203420340034453452344934A8
:1010480043342034533441344E3454344F345334BD
:1010580020342034203420342034003447345534AC
:1010680049342E34203452344934423445344934D6
:1010780052344F3420342034203420340034473460
:10108800413442345234493445344C3420344734A2
:1010980045344E3455342034203420342034003440
:1010A80020342034203420345434653463346E348E
:1010B8006F346C346F346734203420342034203457
:1010C80000342034203420342D342D342D342D3464
:1010D8002D342D342D342D342D342D34203420341A
:1010E80020340034573441344C344C344134433484
:1010F8004534203450344934523445345334203440
:101108002034203400344C3449344E3443344F3482
:101118004E3420344E344F345634413449345334E9
:101128002034203420340034203420342034503407
:1011380061347234653461346D3465346E347434BA
:101148006F342034203420340034203420342034C8
:1011580043346F346E3466346934673475347234AA
:101168006134723420342034203400344D34413416
:1011780054344534553453342034503449344E347F
:1011880048344534493452344F3420340034203400
:1011980045346E34763469346F34203464346534BD
:1011A80020344434613464346F347334203400346C
:1011B80021342A342D342A342034453447345534E4
:1011C80041344134413420342A342D342A342134F2
:1011D8000034313433342034203420344534473417
:1011E80055344134413441342034203420343534AA
:1011F8003034003435343034203420342034203432
:101208004134523452344934203420342034203488
:101218003134333400343A34333420342A342D34DE
:101228002A3441345234523449342A342D342A343D
:1012380020345834443400345834443420342A3464
:101248002D342A3441345234523449342A342D341A
:101258002A3420345834443400345F345F34203422
:1012680020342034203420342034203420342034D6
:101278002034203420345F345F3400344134543413
:101288002B3449344E3451344D343D3430342C34BD
:1012980035342C3435340D340A3400344634723441
:1012A80061346D3469346E346734203445347234B3
:1012B80072346F34723400344F3476346534723497
:1012C800723475346E3420344534723472346F3469
:1012D80072340034203450342F342034453473347D
:1012E80074346534693472346134203400344134E0
:1012F80054342B3443344D344F34443445343D3422
:1013080030340D340A340034413454342B345234DC
:101318004F344C3445343D3430340D340A340034C1
:10132800413454342B3452344F344C3445343D34E6
:1013380031340D340A340034203445346E34763474
:10134800693461346E3464346F3420340034413489
:1013580054342B3452344D344134413444340D34F4
:101368000A340034413454342B344434493453342B
:1013780043340D340A340034413454342B34493462
:101388004E34493454340D340A3400342034503443
:101398002F34203443344C34503420340034413416
:1013A80054342B3449344E3451340D340A34003417
:1013B8004534533454344534493452344134003478
:1013C80050344134523445344134523400342E348C
:1013D80020342034003420342E34203400342E3489
:1013E8002E3420340034203420342E3400342E346B
:1013F8002E342E3400343134003432340034343452
:101408000034353400343634003437340034423450
:0E1418000034653400346C3400347534003414
:10142C0083120313A6002608A5002508A80024088B
:10143C00A5002508A70041302802031C272A3730B5
:10144C00282A3030A80241302702031C2F2A3730BB
:10145C00302A3030A702A80EF030A805280827043F
:10146C00A5002508D5005508080083120313AC010C
:10147C00AC0A0730AD008A30AE000B300A168A1168
:10148C003B220A128A1583120313AC01AC0AA83052
:10149C00AD008730AE000F300A168A113B220A12BB
:1014AC008A150A168A1546270A128A1583120313FF
:1014BC002408B1002508B2000230A6000030A700B5
:1014CC000A128A11F9250A128A15831203132508A8
:1014DC00A9002408A8000A168A11F3240A128A15F6
:1014EC00831203133208803AB3002708803A330280
:1014FC00031D822A260831020318912A8312031332
:10150C00AC01AC0AFD30AD008730AE000D300A16D0
:10151C008A113B22080083120313AC01AC0A093078
:10152C00AD008A30AE000D300A168A113B2208003D
:10153C0083120313AC01AC0A0930AD008A30AE0043
:10154C000D300A168A113B220A128A1583120313D4
:10155C00AC01AC0AFF30AD008930AE0000300A1689
:10156C008A113B220A128A150A168A1546270A1274
:10157C008A15831203132408B1002508B200023027
:10158C00A6000030A7000A128A11F9250A128A1542
:10159C00831203132508A9002408A8000A168A112F
:1015AC00F3240A128A15831203133208803AB3000B
:1015BC002708803A3302031DE52A26083102031856
:1015CC00F42A83120313AC01AC0AFD30AD00873052
:1015DC00AE000F300A168A113B2208008312031347
:1015EC00AC01AC0AA830AD008730AE000F300A1643
:1015FC008A113B220800003083120313B50000301F
:10160C00B4002530B3008030B2000A168A113D2494
:10161C000A128A15FE3083120313A5008630A60029
:10162C000A168A1138210A128A1594308312031370
:10163C00A5008930A6000A168A1138210A128A15CB
:10164C00033083120313BE008A30BD005530BC003A
:10165C00BC0B2E2BBD0B2E2BBE0B2E2B7B308312DB
:10166C000313A5008930A6000A168A1138210A1224
:10167C008A15033083120313BE008A30BD00553027
:10168C00BC00BC0B472BBD0B472BBE0B472B423072
:10169C0083120313A5008930A6000A168A1138217B
:1016AC000A128A15033083120313BE008A30BD0060
:1016BC005530BC00BC0B602BBD0B602BBE0B602BE4
:1016CC00C03083120313A5008930A6000A168A11B4
:1016DC0038210A128A15033083120313BE008A3094
:1016EC00BD005530BC00BC0B792BBD0B792BBE0B50
:1016FC00792BD33083120313A5008930A6000A1668
:10170C008A1138210A128A15033083120313BE0082
:10171C008A30BD005530BC00BC0B922BBD0B922BFC
:10172C00BE0B922BDD3083120313A5008730A6006D
:10173C000A168A113821080001300A168A11E3238F
:10174C000A128A1583120313AC013130AD008930B3
:10175C00AE0000300A168A113B220A128A15063096
:10176C0083120313B3001330B200AD30B100B10BD0
:10177C00BD2BB20BBD2BB30BBD2B83120313AC01D2
:10178C000B30AD008A30AE0006300A168A113B22AF
:10179C000A128A15103083120313B3003930B200C9
:1017AC000D30B100B10BD82BB20BD82BB30BD82BFF
:1017BC0083120313AC010F30AD008A30AE0007303A
:1017CC000A168A113B220A128A151030831203134F
:1017DC00B3003930B2000D30B100B10BF32BB20BAA
:1017EC00F32BB30BF32B83120313AC011130AD00AD
:1017FC008A30AE0008300A168A113B220A128A156A
:10180C00103083120313B3003930B2000D30B10025
:10181C00B10B0E2CB20B0E2CB30B0E2C831203132C
:10182C00AC010D30AD008A30AE0009300A168A11B9
:10183C003B220A128A15103083120313B30039307D
:10184C00B2000D30B100B10B292CB20B292CB30B0B
:10185C00292C83120313AC01AC0A5430AD00883030
:10186C00AE0000300A168A113B220A128A1540304B
:10187C0083120313B3006A30B2009730B100B10B7E
:10188C00452CB20B452CB30B452C080000308312B1
:10189C000313B5000030B4002530B3008030B20023
:1018AC000A168A113D240A128A15FE30831203137C
:1018BC00A5008630A6000A168A1138210A128A154C
:1018CC00AB3083120313A5008930A6000A168A11C7
:1018DC0038210A128A15033083120313BE008A3092
:1018EC00BD005530BC00BC0B792CBD0B792CBE0B4C
:1018FC00792C883083120313A5008930A6000A16B0
:10190C008A1138210A128A15033083120313BE0080
:10191C008A30BD005530BC00BC0B922CBD0B922CF8
:10192C00BE0B922C7B3083120313A5008930A600CA
:10193C000A168A1138210A128A15033083120313EE
:10194C00BE008A30BD005530BC00BC0BAB2CBD0BAF
:10195C00AB2CBE0BAB2C423083120313A500893089
:10196C00A6000A168A1138210A128A15033083122E
:10197C000313BE008A30BD005530BC00BC0BC42C18
:10198C00BD0BC42CBE0BC42CC03083120313A5009A
:10199C008930A6000A168A1138210A128A150330DA
:1019AC0083120313BE008A30BD005530BC00BC0B43
:1019BC00DD2CBD0BDD2CBE0BDD2CEA3083120313AA
:1019CC00A5008630A6000A168A1138210A128A153B
:1019DC00033083120313BE008A30BD005530BC00A7
:1019EC00BC0BF62CBD0BF62CBE0BF62CDD3083128B
:1019FC000313A5008730A6000A168A1138210800A7
:101A0C0083120313AC01EB30AD008930AE0009300A
:101A1C000A168A113B220A128A150D3083120313FF
:101A2C00B300AF30B200B530B100B10B1B2DB20B0F
:101A3C001B2DB30B1B2D222D83120313AC01EF3086
:101A4C00AD008930AE0009300A168A113B220A1209
:101A5C008A150D3083120313B300AF30B200B530CA
:101A6C00B100B10B372DB20B372DB30B372D3E2DEB
:101A7C0083120313AC01F730AD008930AE0009308E
:101A8C000A168A113B220A128A150D30831203138F
:101A9C00B300AF30B200B530B100B10B532DB20B67
:101AAC00532DB30B532D5A2D83120313AC01EB3072
:101ABC00AD008930AE0009300A168A113B220A1299
:101ACC008A150D3083120313B300AF30B200B5305A
:101ADC00B100B10B6F2DB20B6F2DB30B6F2D762D9B
:101AEC0083120313AC01EF30AD008930AE00093026
:101AFC000A168A113B220A128A150D30831203131F
:101B0C00B300AF30B200B530B100B10B8B2DB20BBE
:101B1C008B2DB30B8B2D922D83120313AC01F7304D
:101B2C00AD008930AE0009300A168A113B220A1228
:101B3C008A150D3083120313B300AF30B200B530E9
:101B4C00B100B10BA72DB20BA72DB30BA72DAE2D4A
:101B5C0083120313AC01EB30AD008930AE000930B9
:101B6C000A168A113B220A128A150D3083120313AE
:101B7C00B300AF30B200B530B100B10BC32DB20B16
:101B8C00C32DB30BC32DCA2D83120313AC01F33039
:101B9C00AD008930AE0009300A168A113B220A12B8
:101BAC008A150D3083120313B300AF30B200B53079
:101BBC00B100B10BDF2DB20BDF2DB30BDF2DE62DFA
:101BCC0083120313AC01FB30AD008930AE00093039
:101BDC000A168A113B220A128A1512308312031339
:101BEC00B300C230B2006530B100B10BFB2DB20BAB
:101BFC00FB2DB30BFB2D022E080001300A168A11A7
:101C0C00E3230A128A1583120313AC017630AD005C
:101C1C008830AE0000300A168A113B220A128A154F
:101C2C001A3083120313B3005E30B2006D30B10072
:101C3C00B10B1E2EB20B1E2EB30B1E2E252E831295
:101C4C000313AC01AC0ABA30AD008830AE000030E2
:101C5C000A168A113B220A128A151A3083120313B0
:101C6C00B3005E30B2006D30B100B10B3B2EB20B45
:101C7C003B2EB30B3B2E422E83120313AC01EE30E2
:101C8C00AD008730AE0000300A168A113B220A12D2
:101C9C008A1583120313AC013230AD008830AE00CC
:101CAC0000300A168A113B220A128A151A30831246
:101CBC000313B3005E30B2006D30B100B10B642E73
:101CCC00B20B642EB30B642E6B2E83120313AC0178
:101CDC00AC0AEE30AD008730AE0000300A168A1127
:101CEC003B220A128A1583120313AC01AC0A43304F
:101CFC00AD008830AE0000300A168A113B220A1261
:101D0C008A151A3083120313B3005E30B2006D30A3
:101D1C00B100B10B8F2EB20B8F2EB30B8F2E962ED4
:101D2C0083120313AC01EE30AD008730AE000030EF
:101D3C000A168A113B220A128A1583120313AC016C
:101D4C002130AD008830AE0000300A168A113B22DB
:101D5C000A128A151A3083120313B3005E30B200D4
:101D6C006D30B100B10BB82EB20BB82EB30BB82E30
:101D7C00BF2E83120313AC01AC0AEE30AD008730DA
:101D8C00AE0000300A168A113B220A128A15831201
:101D9C000313AC01AC0A8730AD008830AE000030C4
:101DAC000A168A113B220A128A151A30831203135F
:101DBC00B3005E30B2006D30B100B10BE32EB20B4C
:101DCC00E32EB30BE32EEA2E83120313AC01EE3099
:101DDC00AD008730AE0000300A168A113B220A1281
:101DEC008A15083083120313B3009D30B2000530FE
:101DFC00B100B10BFF2EB20BFF2EB30BFF2E013037
:101E0C000A168A11E3230A128A1506308312031369
:101E1C00B3001330B200AD30B100B10B132FB20BC5
:101E2C00132FB30B132F83120313AC01FF30AD0030
:101E3C008730AE0000300A168A113B220A128A152E
:101E4C000D3083120313B300AF30B200B530B100C4
:101E5C00B10B2E2FB20B2E2FB30B2E2F352F83122F
:101E6C000313AC01AC0A1030AD008830AE0000306A
:101E7C000A168A113B220A128A1540308312031368
:101E8C00B3006A30B2009730B100B10B4B2FB20BDC
:101E9C004B2FB30B4B2F01300A168A11E3230A1276
:101EAC008A15063083120313B3001330B200AD3021
:101EBC00B100B10B5F2FB20B5F2FB30B5F2F8312EF
:101ECC000313AC012030AD008930AE0000300A168F
:101EDC008A113B220A128A1583120313AC01AC0A35
:101EEC00DC30AD008830AE0000300A168A113B227F
:101EFC000A128A151A3083120313B3005E30B20033
:101F0C006D30B100B10B882FB20B882FB30B882F1B
:101F1C008F2F83120313AC01FE30AD008830AE005E
:101F2C0000300A168A113B220A128A1583120313F7
:101F3C00AC01AC0AED30AD008830AE0000300A16B2
:101F4C008A113B220A128A15123083120313B30032
:101F5C00C230B2006530B100B10BB22FB20BB22F50
:101F6C00B30BB22FB92F83120313AC010F30AD009A
:101F7C008930AE0000300A168A113B220A128A15EB
:101F8C0083120313AC01AC0ADC30AD008830AE0018
:101F9C0000300A168A113B220A128A151A30831253
:101FAC000313B3005E30B2006D30B100B10BDC2F07
:101FBC00B20BDC2FB30BDC2FE32F01300A168A1186
:101FCC00E3230A128A15063083120313B30013306D
:101FDC00B200AD30B100B10BF12FB20BF12FB30B3E
:101FEC00F12F0A168A110D200A128A150A168A1167
:041FFC002720080092
:1020020083120313181D072801300800981C0B289F
:1020120002300800003008000A168A1538270A160E
:102022008A1183120313A5002508A7002708031DA0
:1020320020284F03031D2028A601A60A2128A60155
:102042002708A5002508CF00260808000A168A15C9
:102052002D270A168A1183120313A4002408A6004E
:102062002608031D3A284E03031D3A28A501A50A96
:102072003B28A5012608A4002408CE002508080054
:1020820064308312031381000130C9070318CA0A9E
:102092000030CA074A08803AF0004C08803A7002C1
:1020A200031D55284B084902031C08008312031321
:1020B200C901CA0108008B1383160317880183160E
:1020C20003130516811281110115811001100116E9
:1020D2006430831203138100BC30A4000230A500D7
:1020E2000A168A153F278B168B1708001E3083129B
:1020F2000313A4000030A5004D08AB00AC01AB09EE
:10210200AC09AB0A0319AC0A7C082B07A6002C0801
:1021120003182C0AA7000A168A11EC228312031351
:1021220024080800FB007B08F7007C08A03E84001E
:102132007708831380001E30F0000030F100013078
:10214200F7007708FC077C08F800F9017808F2002C
:102152007908F3000A168A11A1227008FA007A0897
:10216200FC00080001300A168A11E3230A168A11BC
:1021720083120313AC01CB30AD008830AE000030C7
:102182000A168A113B220A168A1183120313AC0122
:10219200AC0A6530AD008830AE0000300A168A11F4
:1021A2003B22080001300A168A11E3230A168A111B
:1021B20083120313AC019830AD008830AE000030BA
:1021C2000A168A113B220A168A1183120313AC01E2
:1021D200AC0A6530AD008830AE0000300A168A11B4
:1021E2003B22080001300A168A11E3230A168A11DB
:1021F20083120313AC01A930AD008830AE00003069
:102202000A168A113B220A168A1183120313AC01A1
:10221200AC0A6530AD008830AE0000300A168A1173
:102222003B2208008B13831603138C1E2129831271
:1022320003138C1E21290A168A1560270A168A1191
:102242008B1A0B1D2A290B110A168A1141200A1614
:102252008A118B17831203132308FF0022088A00B6
:1022620021088400200E8300FE0E7E0E09008312D8
:1022720003132608FF00250884000A168A15002089
:102282000A168A11003A0319080083160313981CD0
:102292004629831203132608FF00250884000A1624
:1022A2008A1500200A168A110A168A1532270A167A
:1022B2008A11013083120313A5070318A60A3829CD
:1022C200003083120313B5000030B4002530B30090
:1022D2008030B2000A168A113D240A168A11B630DD
:1022E20083120313A5008930A6000A168A11382129
:1022F2000A168A11033083120313BE008A30BD000E
:102302005530BC00BC0B8329BD0B8329BE0B83292E
:10231200080083120313AF014D087C060319B1298B
:102322004D08A03E840083130008AB002B08AF00C9
:102332001E30A4000030A5000130AB002B08CD07F1
:102342004D08AC00AD012C08A6002D08A7000A1606
:102352008A11EC22831203132408AE002E08CD004A
:102362002F08080083120313181DC929981303307C
:1023720083120313A6008A30A5005530A400A40BD3
:10238200C029A50BC029A60BC029831203139817D5
:10239200981C08001812033083120313A6008A3017
:1023A200A5005530A400A40BD429A50BD429A60B53
:1023B200D429831203131816080083120313A500ED
:1023C20025080F39A4002408A6002508F039A40026
:1023D2002408A700A70E0F30A7050A302602031C07
:1023E200F4293730F5293030A4002408A6070A3032
:1023F2002702031CFE293730FF293030A4002408AD
:10240200A7072708A4002408D3002608A40024084C
:10241200D400080083120313A5002508A400240891
:10242200A6000816260E0F39A40008082406F03963
:10243200240688008812413083120313A400A40BDF
:10244200202A232A831203138816081626080F3916
:10245200A40008082406F0392406880088124130B6
:1024620083120313A400A40B342A372A8312031302
:102472008816080083120313B0002C08AF002F083F
:10248200A80030080A168A159C270A168A11831298
:1024920003132E08FF002D0884000A168A15002057
:1024A2000A168A11003A03190800831203132E0830
:1024B200FF002D0884000A168A1500200A168A11C8
:1024C2000A168A110B220A168A110130831203138B
:1024D200AD070318AE0A482AF030831203138805A9
:1024E200081288168316031388010330831203131C
:1024F200AA008A30A9005530A800A80B7E2AA90B91
:102502007E2AAA0B7E2A20300A168A11E3230A1693
:102512008A1128300A168A11E3230A168A110C300E
:102522000A168A11E3230A168A1101300A168A1141
:10253200E3230A168A1102300A168A11E3230800DD
:10254200F601F31FAB2AF209F309F20A0319F30A9F
:10255200F601F60AF11FB22AF009F109F00A03198D
:10256200F10A700871040319DF2AF501F50AF11B5B
:10257200C62A01300310F00DF10DFF3E031DBB2AE8
:102582000130F4007408F507B82A71087302031DBC
:10259200CC2A70087202031CD42A7008F202710855
:1025A200031CF303F30201300310F10CF00CFF3EA5
:1025B200031DD52A0130F502031DC62A7608031928
:1025C200E72AF209F309F20A0319F30A7308F10080
:1025D2007208F000080083120313AA01A71FF82A49
:1025E200A609A709A60A0319A70AAA01AA0AA51FEA
:1025F200FF2AA409A509A40A0319A50A2408250487
:1026020003192C2BA901A90AA51B132B01300310B6
:10261200A40DA50DFF3E031D082B0130A8002808BC
:10262200A907052B25082702031D192B24082602BA
:10263200031C212B2408A6022508031CA703A702BA
:1026420001300310A50CA40CFF3E031D222B013008
:10265200A902031D132B2A080319342BA609A70963
:10266200A60A0319A70A2708A5002608A40008003D
:1026720083120313AC01AC0ADC30AD008930AE002A
:1026820000300A168A113B220A168A110A168A1586
:1026920046270A168A11831203132408B10025085B
:1026A200B2000230A6000030A7000A128A11F925F2
:1026B2000A168A11831203132508A9002408A80008
:1026C2000A168A11F3240A168A1183120313320896
:1026D200803AB3002708803A3302031D722B260882
:1026E20031020318812B83120313AC01AC0AFB30B5
:1026F200AD008730AE000D300A168A113B22080069
:1027020083120313AC01AC0AD930AD008730AE009E
:102712000D300A168A113B22080083120313AC0102
:10272200AC0AD930AD008730AE000D300A168A11DE
:102732003B220A168A110A168A1546270A168A1198
:10274200831203132408B1002508B2000230A60048
:102752000030A7000A128A11F9250A168A1183127B
:1027620003132508A9002408A8000A168A11F324D5
:102772000A168A11831203133208803AB30027081B
:10278200803A3302031DC72B260831020318D62BC9
:1027920083120313AC01AC0AF730AD008730AE00F0
:1027A20000300A168A113B22080083120313AC017F
:1027B200AC0ADC30AD008930AE0000300A168A1156
:1027C2003B22080083120313A6002608A400240853
:1027D200A7000812270E0F39A40008082406F039B2
:1027E20024068800881226030319FB2B02302606D2
:1027F200031D072C213083120313A5007530A4009A
:10280200A40B012CA50B012C062C0E2C413083129B
:102812000313A400A40B0B2C0E2C83120313881693
:102822002030260603190800081227080F39A400D1
:1028320008082406F03924068800881226030319A2
:10284200262C02302606031D322C2130831203135C
:10285200A5007530A400A40B2C2CA50B2C2C312C1C
:10286200392C413083120313A400A40B362C392CCB
:102872008312031388160800831203133208B6006A
:102882003308B7003408B8003508B9000230031025
:10289200B60DB70DB80DB90DFF3E031D482C390812
:1028A200A7003808A6003708A5003608A4000130A2
:1028B200AB003130AA002D30A9000030A8000A1662
:1028C2008A114E250A168A11831203132408FF3E29
:1028D200BA0025080318013EFF3EBB003A088316E2
:1028E20003139900831203133B08831603139A0000
:1028F20018128316031787158316031318158312EC
:1029020003139817831603139816831203131816CA
:1029120083160313181318108312031318131810B5
:102922008316031314168C160B178B17080000302E
:1029320083120313B5000030B4002530B300803099
:10294200B2000A168A113D240A168A1138308312FF
:102952000313A5008630A6000A168A1138210A162A
:102962008A11033083120313BE008A30BD00553032
:10297200BC00BC0BBA2CBD0BBA2CBE0BBA2CD1308E
:1029820083120313A5008630A6000A168A11382185
:102992000A168A11033083120313BE008A30BD0067
:1029A2005530BC00BC0BD32CBD0BD32CBE0BD32C8F
:1029B200B83083120313A5008630A6000A168A11C6
:1029C20038210A168A11033083120313BE008A309B
:1029D200BD005530BC00BC0BEC2CBD0BEC2CBE0B6F
:1029E200EC2C080083120313AC01A71FFF2CA609CD
:1029F200A709A60A0319A70AAC01AC0AA91F0A2D46
:102A0200A809A909A80A0319A90A0130AA002A08D3
:102A1200AC06AD01AE01260827040319412DAB0116
:102A2200AB0AA71B202D01300310A60DA70DFF3EF8
:102A3200031D152D0130AA002A08AB07122D013003
:102A42000310AD0DAE0DFF3E031D212D27082902F7
:102A5200031D2D2D26082802031C362D2608A80248
:102A62002708031CA903A9022D1401300310A70C87
:102A7200A60CFF3E031D372D0130AB02031D202D96
:102A82002C080319492DAD09AE09AD0A0319AE0A86
:102A92002E08A7002D08A600080000308312031399
:102AA200B0000030AF000030AE000030AD002708AB
:102AB2002604250424040319A52DB101B10AA71B7C
:102AC200702D0130AC000310A40DA50DA60DA70DAD
:102AD200AC0B642D0130AC002C08B107602D013025
:102AE200AC000310AD0DAE0DAF0DB00DAC0B722DE1
:102AF20027082B02031D872D26082A02031D872D76
:102B020025082902031D872D24082802031C982D5D
:102B12002408A8022508031C250FA9022608031C65
:102B2200260FAA022708031C270FAB022D1401301F
:102B32000310A70CA60CA50CA40CFF3E031D992D97
:102B42000130B102031D702D3008A7002F08A60026
:102B52002E08A5002D08A400080083120313AC015F
:102B6200AC0AA830AD008730AE000F300A168A11C9
:102B72003B220A168A1183120313AC01AC0A0130FC
:102B8200AD008A30AE0002300A168A113B220A16C4
:102B92008A110A168A1546270A168A118312031306
:102BA2002408B1002508B2000230A6000030A700B8
:102BB2000A128A11F9250A168A11831203132508AB
:102BC200A9002408A8000A168A11F3240A168A11F9
:102BD200831203133208803AB3002708803A330283
:102BE200031DF52D260831020318042E8312031348
:102BF200AC01AC0AFD30AD008730AE0000300A16E1
:102C02008A113B22080083120313AC01AC0AFF3085
:102C1200AD008930AE0000300A168A113B2208004E
:102C220083120313AC01AC0AFF30AD008930AE0051
:102C320000300A168A113B220A168A1183120313E4
:102C4200AC01AC0A0D30AD008930AE0004300A167A
:102C52008A113B220A168A110A168A1546270A1673
:102C62008A11831203132408B1002508B20002302E
:102C7200A6000030A7000A128A11F9250A168A1145
:102C8200831203132508A9002408A8000A168A1132
:102C9200F3240A168A11831203133208803AB3000E
:102CA2002708803A3302031D582E260831020318E2
:102CB200672E83120313AC01AC0AFD30AD008730DE
:102CC200AE0002300A168A113B2208008312031357
:102CD200AC01AC0A0130AD008A30AE0002300A16F7
:102CE2008A113B22080083120313AC01AC0A0130A3
:102CF200AD008A30AE0002300A168A113B220A1653
:102D02008A1183120313AC01AC0A0330AD008A307E
:102D1200AE0006300A168A113B220A168A110A16DA
:102D22008A1546270A168A11831203132408B10052
:102D32002508B2000230A6000030A7000A128A114C
:102D4200F9250A168A11831203132508A9002408FB
:102D5200A8000A168A11F3240A168A118312031391
:102D62003208803AB3002708803A3302031DBB2E93
:102D7200260831020318CA2E83120313AC01AC0ACF
:102D8200FD30AD008730AE0004300A168A113B22B6
:102D9200080083120313AC01AC0A0D30AD00893078
:102DA200AE0004300A168A113B2208008312031374
:102DB200AC01AC0A0D30AD008930AE0004300A1609
:102DC2008A113B220A168A1183120313AC01AC0A40
:102DD2000530AD008A30AE0009300A168A113B2256
:102DE2000A168A110A168A1546270A168A118312AA
:102DF20003132408B1002508B2000230A6000030F7
:102E0200A7000A128A11F9250A168A1183120313DE
:102E12002508A9002408A8000A168A11F3240A1614
:102E22008A11831203133208803AB3002708803ACA
:102E32003302031D1E2F2608310203182D2F831281
:102E42000313AC01AC0AFD30AD008730AE00063092
:102E52000A168A113B22080083120313AC01AC0A42
:102E62000330AD008A30AE0006300A168A113B22CA
:102E7200080083120313AC01AC0A0330AD008A30A0
:102E8200AE0006300A168A113B220A168A118312F4
:102E92000313AC01AC0A0730AD008A30AE000B3030
:102EA2000A168A113B220A168A110A168A15462721
:102EB2000A168A11831203132408B1002508B200EE
:102EC2000230A6000030A7000A128A11F9250A165C
:102ED2008A11831203132508A9002408A8000A16E0
:102EE2008A11F3240A168A11831203133208803AD4
:102EF200B3002708803A3302031D812F26083102CE
:102F02000318902F83120313AC01AC0AFD30AD00FD
:102F12008730AE0009300A168A113B22080083125C
:102F22000313AC01AC0A0530AD008A30AE000930A3
:102F32000A168A113B22080083120313AC01AC0A61
:102F42000530AD008A30AE0009300A168A113B22E4
:102F52000A168A1183120313AC01AC0A0930AD00C0
:102F62008A30AE000D300A168A113B220A168A11E7
:102F72000A168A1546270A168A1183120313240891
:102F8200B1002508B2000230A6000030A7000A12E4
:102F92008A11F9250A168A11831203132508A9003A
:102FA2002408A8000A168A11F3240A168A11831229
:102FB20003133208803AB3002708803A3302031D14
:102FC200E42F260831020318F32F83120313AC01F6
:102FD200AC0AFD30AD008730AE000B300A168A1104
:102FE2003B22080083120313AC01AC0A0730AD0088
:102FF2008A30AE000B300A168A113B220800FF1BF2
:103002000A2883137F1883170008840A0319FF0A0A
:1030120008007F087F398A000408840A0319FF0A1E
:0230220082002A
:103E500083120313070C01390800831203130708A8
:103E60000139080083120313A400240899000800F4
:103E700083120313070CA400240C013908008312D9
:103E800003132508CC002408CB0008008312031379
:103E90004A08A5004908A400080064008001840ABB
:103EA00004060319003404064E2F83160313071467
:103EB00087140715831203130710871007110800D2
:103EC00083120313181D662F98136E2F981C6A2FE8
:103ED00018126E2F1A080A168A11932083120313E0
:103EE00098171816080083120313A700A601271CB1
:103EF0007D2F2408A5002508A6070310A40D031094
:103F0000A70C2708031D772F260808008312031328
:103F10008601F030A700270897058316031789014B
:103F20000230831603138600831203130616003033
:103F30000A168A15B427080083120313AB003F301A
:103F40002B05A900C030AA002A08A40028080A16D8
:103F50008A1573270A168A158312031329078038D6
:103F60000A168A11E323080083120313A500803088
:103F7000A4002408A600861126080319CB2F0611D9
:103F8000250826050319C62F0614C72F061003108F
:103F9000A60C0615BC2F861508008030831203136B
:103FA000A4002408A600A501861186152608031979
:103FB000E42F0611861CE02F2608A4002408A5047F
:103FC0000310A60C0615D62F250808000A168A1518
:103FD00028270A168A1583120313A4002408A600B2
:103FE0002608031DF92F5003031DF92FA501A50A6B
:103FF000FA2FA5012608A4002408D00025080800EF
:04400E00E2EFFFFFDF
:00000001FF
